{
  "contractName": "luckySevenERC20",
  "abi": [
    {
      "anonymous": false,
      "inputs": [
        {
          "indexed": true,
          "internalType": "address",
          "name": "owner",
          "type": "address"
        },
        {
          "indexed": true,
          "internalType": "address",
          "name": "spender",
          "type": "address"
        },
        {
          "indexed": false,
          "internalType": "uint256",
          "name": "value",
          "type": "uint256"
        }
      ],
      "name": "Approval",
      "type": "event"
    },
    {
      "anonymous": false,
      "inputs": [
        {
          "indexed": true,
          "internalType": "address",
          "name": "from",
          "type": "address"
        },
        {
          "indexed": true,
          "internalType": "address",
          "name": "to",
          "type": "address"
        },
        {
          "indexed": false,
          "internalType": "uint256",
          "name": "value",
          "type": "uint256"
        }
      ],
      "name": "Transfer",
      "type": "event"
    },
    {
      "anonymous": false,
      "inputs": [
        {
          "indexed": false,
          "internalType": "enum luckySevenERC20.choices",
          "name": "userChoice",
          "type": "uint8"
        },
        {
          "indexed": false,
          "internalType": "uint256",
          "name": "result",
          "type": "uint256"
        }
      ],
      "name": "output",
      "type": "event"
    },
    {
      "inputs": [
        {
          "internalType": "address",
          "name": "owner",
          "type": "address"
        },
        {
          "internalType": "address",
          "name": "spender",
          "type": "address"
        }
      ],
      "name": "allowance",
      "outputs": [
        {
          "internalType": "uint256",
          "name": "",
          "type": "uint256"
        }
      ],
      "stateMutability": "view",
      "type": "function",
      "constant": true
    },
    {
      "inputs": [
        {
          "internalType": "address",
          "name": "spender",
          "type": "address"
        },
        {
          "internalType": "uint256",
          "name": "amount",
          "type": "uint256"
        }
      ],
      "name": "approve",
      "outputs": [
        {
          "internalType": "bool",
          "name": "",
          "type": "bool"
        }
      ],
      "stateMutability": "nonpayable",
      "type": "function"
    },
    {
      "inputs": [
        {
          "internalType": "address",
          "name": "account",
          "type": "address"
        }
      ],
      "name": "balanceOf",
      "outputs": [
        {
          "internalType": "uint256",
          "name": "",
          "type": "uint256"
        }
      ],
      "stateMutability": "view",
      "type": "function",
      "constant": true
    },
    {
      "inputs": [],
      "name": "decimals",
      "outputs": [
        {
          "internalType": "uint8",
          "name": "",
          "type": "uint8"
        }
      ],
      "stateMutability": "view",
      "type": "function",
      "constant": true
    },
    {
      "inputs": [
        {
          "internalType": "address",
          "name": "spender",
          "type": "address"
        },
        {
          "internalType": "uint256",
          "name": "subtractedValue",
          "type": "uint256"
        }
      ],
      "name": "decreaseAllowance",
      "outputs": [
        {
          "internalType": "bool",
          "name": "",
          "type": "bool"
        }
      ],
      "stateMutability": "nonpayable",
      "type": "function"
    },
    {
      "inputs": [
        {
          "internalType": "address",
          "name": "spender",
          "type": "address"
        },
        {
          "internalType": "uint256",
          "name": "addedValue",
          "type": "uint256"
        }
      ],
      "name": "increaseAllowance",
      "outputs": [
        {
          "internalType": "bool",
          "name": "",
          "type": "bool"
        }
      ],
      "stateMutability": "nonpayable",
      "type": "function"
    },
    {
      "inputs": [],
      "name": "name",
      "outputs": [
        {
          "internalType": "string",
          "name": "",
          "type": "string"
        }
      ],
      "stateMutability": "view",
      "type": "function",
      "constant": true
    },
    {
      "inputs": [],
      "name": "symbol",
      "outputs": [
        {
          "internalType": "string",
          "name": "",
          "type": "string"
        }
      ],
      "stateMutability": "view",
      "type": "function",
      "constant": true
    },
    {
      "inputs": [],
      "name": "totalSupply",
      "outputs": [
        {
          "internalType": "uint256",
          "name": "",
          "type": "uint256"
        }
      ],
      "stateMutability": "view",
      "type": "function",
      "constant": true
    },
    {
      "inputs": [
        {
          "internalType": "address",
          "name": "to",
          "type": "address"
        },
        {
          "internalType": "uint256",
          "name": "amount",
          "type": "uint256"
        }
      ],
      "name": "transfer",
      "outputs": [
        {
          "internalType": "bool",
          "name": "",
          "type": "bool"
        }
      ],
      "stateMutability": "nonpayable",
      "type": "function"
    },
    {
      "inputs": [
        {
          "internalType": "address",
          "name": "from",
          "type": "address"
        },
        {
          "internalType": "address",
          "name": "to",
          "type": "address"
        },
        {
          "internalType": "uint256",
          "name": "amount",
          "type": "uint256"
        }
      ],
      "name": "transferFrom",
      "outputs": [
        {
          "internalType": "bool",
          "name": "",
          "type": "bool"
        }
      ],
      "stateMutability": "nonpayable",
      "type": "function"
    },
    {
      "inputs": [
        {
          "internalType": "uint256",
          "name": "amount",
          "type": "uint256"
        },
        {
          "internalType": "address[]",
          "name": "players",
          "type": "address[]"
        },
        {
          "internalType": "uint256",
          "name": "playerAmount",
          "type": "uint256"
        }
      ],
      "name": "mint",
      "outputs": [],
      "stateMutability": "nonpayable",
      "type": "function"
    },
    {
      "inputs": [
        {
          "internalType": "enum luckySevenERC20.choices",
          "name": "choice",
          "type": "uint8"
        },
        {
          "internalType": "uint256",
          "name": "bet",
          "type": "uint256"
        }
      ],
      "name": "getLucky",
      "outputs": [],
      "stateMutability": "nonpayable",
      "type": "function"
    }
  ],
  "bytecode": "0x60806040523480156200001157600080fd5b506040518060400160405280600a81526020017f4c75636b79536576656e000000000000000000000000000000000000000000008152506040518060400160405280600281526020017f4c37000000000000000000000000000000000000000000000000000000000000815250816003908051906020019062000096929190620000b8565b508060049080519060200190620000af929190620000b8565b505050620001cd565b828054620000c69062000197565b90600052602060002090601f016020900481019282620000ea576000855562000136565b82601f106200010557805160ff191683800117855562000136565b8280016001018555821562000136579182015b828111156200013557825182559160200191906001019062000118565b5b50905062000145919062000149565b5090565b5b80821115620001645760008160009055506001016200014a565b5090565b7f4e487b7100000000000000000000000000000000000000000000000000000000600052602260045260246000fd5b60006002820490506001821680620001b057607f821691505b60208210811415620001c757620001c662000168565b5b50919050565b611cb680620001dd6000396000f3fe608060405234801561001057600080fd5b50600436106100cf5760003560e01c8063395093511161008c57806395d89b411161006657806395d89b4114610226578063a457c2d714610244578063a9059cbb14610274578063dd62ed3e146102a4576100cf565b806339509351146101aa57806361150375146101da57806370a08231146101f6576100cf565b806306fdde03146100d4578063095ea7b3146100f257806318160ddd1461012257806323b872dd146101405780632b4dec9a14610170578063313ce5671461018c575b600080fd5b6100dc6102d4565b6040516100e99190610f4b565b60405180910390f35b61010c60048036038101906101079190611015565b610366565b6040516101199190611070565b60405180910390f35b61012a610389565b604051610137919061109a565b60405180910390f35b61015a600480360381019061015591906110b5565b610393565b6040516101679190611070565b60405180910390f35b61018a6004803603810190610185919061112d565b6103c2565b005b6101946105ec565b6040516101a19190611189565b60405180910390f35b6101c460048036038101906101bf9190611015565b6105f5565b6040516101d19190611070565b60405180910390f35b6101f460048036038101906101ef91906112ec565b61062c565b005b610210600480360381019061020b919061135b565b61067f565b60405161021d919061109a565b60405180910390f35b61022e6106c7565b60405161023b9190610f4b565b60405180910390f35b61025e60048036038101906102599190611015565b610759565b60405161026b9190611070565b60405180910390f35b61028e60048036038101906102899190611015565b6107d0565b60405161029b9190611070565b60405180910390f35b6102be60048036038101906102b99190611388565b6107f3565b6040516102cb919061109a565b60405180910390f35b6060600380546102e3906113f7565b80601f016020809104026020016040519081016040528092919081815260200182805461030f906113f7565b801561035c5780601f106103315761010080835404028352916020019161035c565b820191906000526020600020905b81548152906001019060200180831161033f57829003601f168201915b5050505050905090565b60008061037161087a565b905061037e818585610882565b600191505092915050565b6000600254905090565b60008061039e61087a565b90506103ab858285610a4d565b6103b6858585610ad9565b60019150509392505050565b8060026103cf9190611458565b6103d83061067f565b1015610419576040517f08c379a0000000000000000000000000000000000000000000000000000000008152600401610410906114fe565b60405180910390fd5b6000811161045c576040517f08c379a00000000000000000000000000000000000000000000000000000000081526004016104539061156a565b60405180910390fd5b806104663361067f565b10156104a7576040517f08c379a000000000000000000000000000000000000000000000000000000000815260040161049e906115d6565b60405180910390fd5b6000600e4340426040516020016104bf929190611642565b6040516020818303038152906040528051906020012060001c6104e2919061169d565b9050600781148015610518575060016002811115610503576105026116ce565b5b836002811115610516576105156116ce565b5b145b80610553575060078110801561055257506000600281111561053d5761053c6116ce565b5b8360028111156105505761054f6116ce565b5b145b5b8061058d575060078111801561058c5750600280811115610577576105766116ce565b5b83600281111561058a576105896116ce565b5b145b5b156105a25761059d303384610ad9565b6105ae565b6105ac30836107d0565b505b7fa44e719ce737d04b3ba9026a7631471cd705d0048b87775572c82edf8027c38983826040516105df929190611745565b60405180910390a1505050565b60006012905090565b60008061060061087a565b905061062181858561061285896107f3565b61061c919061176e565b610882565b600191505092915050565b6106363084610d51565b60005b825181101561067957610666838281518110610658576106576117c4565b5b602002602001015183610d51565b8080610671906117f3565b915050610639565b50505050565b60008060008373ffffffffffffffffffffffffffffffffffffffff1673ffffffffffffffffffffffffffffffffffffffff168152602001908152602001600020549050919050565b6060600480546106d6906113f7565b80601f0160208091040260200160405190810160405280929190818152602001828054610702906113f7565b801561074f5780601f106107245761010080835404028352916020019161074f565b820191906000526020600020905b81548152906001019060200180831161073257829003601f168201915b5050505050905090565b60008061076461087a565b9050600061077282866107f3565b9050838110156107b7576040517f08c379a00000000000000000000000000000000000000000000000000000000081526004016107ae906118ae565b60405180910390fd5b6107c48286868403610882565b60019250505092915050565b6000806107db61087a565b90506107e8818585610ad9565b600191505092915050565b6000600160008473ffffffffffffffffffffffffffffffffffffffff1673ffffffffffffffffffffffffffffffffffffffff16815260200190815260200160002060008373ffffffffffffffffffffffffffffffffffffffff1673ffffffffffffffffffffffffffffffffffffffff16815260200190815260200160002054905092915050565b600033905090565b600073ffffffffffffffffffffffffffffffffffffffff168373ffffffffffffffffffffffffffffffffffffffff1614156108f2576040517f08c379a00000000000000000000000000000000000000000000000000000000081526004016108e990611940565b60405180910390fd5b600073ffffffffffffffffffffffffffffffffffffffff168273ffffffffffffffffffffffffffffffffffffffff161415610962576040517f08c379a0000000000000000000000000000000000000000000000000000000008152600401610959906119d2565b60405180910390fd5b80600160008573ffffffffffffffffffffffffffffffffffffffff1673ffffffffffffffffffffffffffffffffffffffff16815260200190815260200160002060008473ffffffffffffffffffffffffffffffffffffffff1673ffffffffffffffffffffffffffffffffffffffff168152602001908152602001600020819055508173ffffffffffffffffffffffffffffffffffffffff168373ffffffffffffffffffffffffffffffffffffffff167f8c5be1e5ebec7d5bd14f71427d1e84f3dd0314c0f7b2291e5b200ac8c7c3b92583604051610a40919061109a565b60405180910390a3505050565b6000610a5984846107f3565b90507fffffffffffffffffffffffffffffffffffffffffffffffffffffffffffffffff8114610ad35781811015610ac5576040517f08c379a0000000000000000000000000000000000000000000000000000000008152600401610abc90611a3e565b60405180910390fd5b610ad28484848403610882565b5b50505050565b600073ffffffffffffffffffffffffffffffffffffffff168373ffffffffffffffffffffffffffffffffffffffff161415610b49576040517f08c379a0000000000000000000000000000000000000000000000000000000008152600401610b4090611ad0565b60405180910390fd5b600073ffffffffffffffffffffffffffffffffffffffff168273ffffffffffffffffffffffffffffffffffffffff161415610bb9576040517f08c379a0000000000000000000000000000000000000000000000000000000008152600401610bb090611b62565b60405180910390fd5b610bc4838383610ea8565b60008060008573ffffffffffffffffffffffffffffffffffffffff1673ffffffffffffffffffffffffffffffffffffffff16815260200190815260200160002054905081811015610c4a576040517f08c379a0000000000000000000000000000000000000000000000000000000008152600401610c4190611bf4565b60405180910390fd5b8181036000808673ffffffffffffffffffffffffffffffffffffffff1673ffffffffffffffffffffffffffffffffffffffff16815260200190815260200160002081905550816000808573ffffffffffffffffffffffffffffffffffffffff1673ffffffffffffffffffffffffffffffffffffffff168152602001908152602001600020600082825401925050819055508273ffffffffffffffffffffffffffffffffffffffff168473ffffffffffffffffffffffffffffffffffffffff167fddf252ad1be2c89b69c2b068fc378daa952ba7f163c4a11628f55a4df523b3ef84604051610d38919061109a565b60405180910390a3610d4b848484610ead565b50505050565b600073ffffffffffffffffffffffffffffffffffffffff168273ffffffffffffffffffffffffffffffffffffffff161415610dc1576040517f08c379a0000000000000000000000000000000000000000000000000000000008152600401610db890611c60565b60405180910390fd5b610dcd60008383610ea8565b8060026000828254610ddf919061176e565b92505081905550806000808473ffffffffffffffffffffffffffffffffffffffff1673ffffffffffffffffffffffffffffffffffffffff168152602001908152602001600020600082825401925050819055508173ffffffffffffffffffffffffffffffffffffffff16600073ffffffffffffffffffffffffffffffffffffffff167fddf252ad1be2c89b69c2b068fc378daa952ba7f163c4a11628f55a4df523b3ef83604051610e90919061109a565b60405180910390a3610ea460008383610ead565b5050565b505050565b505050565b600081519050919050565b600082825260208201905092915050565b60005b83811015610eec578082015181840152602081019050610ed1565b83811115610efb576000848401525b50505050565b6000601f19601f8301169050919050565b6000610f1d82610eb2565b610f278185610ebd565b9350610f37818560208601610ece565b610f4081610f01565b840191505092915050565b60006020820190508181036000830152610f658184610f12565b905092915050565b6000604051905090565b600080fd5b600080fd5b600073ffffffffffffffffffffffffffffffffffffffff82169050919050565b6000610fac82610f81565b9050919050565b610fbc81610fa1565b8114610fc757600080fd5b50565b600081359050610fd981610fb3565b92915050565b6000819050919050565b610ff281610fdf565b8114610ffd57600080fd5b50565b60008135905061100f81610fe9565b92915050565b6000806040838503121561102c5761102b610f77565b5b600061103a85828601610fca565b925050602061104b85828601611000565b9150509250929050565b60008115159050919050565b61106a81611055565b82525050565b60006020820190506110856000830184611061565b92915050565b61109481610fdf565b82525050565b60006020820190506110af600083018461108b565b92915050565b6000806000606084860312156110ce576110cd610f77565b5b60006110dc86828701610fca565b93505060206110ed86828701610fca565b92505060406110fe86828701611000565b9150509250925092565b6003811061111557600080fd5b50565b60008135905061112781611108565b92915050565b6000806040838503121561114457611143610f77565b5b600061115285828601611118565b925050602061116385828601611000565b9150509250929050565b600060ff82169050919050565b6111838161116d565b82525050565b600060208201905061119e600083018461117a565b92915050565b600080fd5b7f4e487b7100000000000000000000000000000000000000000000000000000000600052604160045260246000fd5b6111e182610f01565b810181811067ffffffffffffffff82111715611200576111ff6111a9565b5b80604052505050565b6000611213610f6d565b905061121f82826111d8565b919050565b600067ffffffffffffffff82111561123f5761123e6111a9565b5b602082029050602081019050919050565b600080fd5b600061126861126384611224565b611209565b9050808382526020820190506020840283018581111561128b5761128a611250565b5b835b818110156112b457806112a08882610fca565b84526020840193505060208101905061128d565b5050509392505050565b600082601f8301126112d3576112d26111a4565b5b81356112e3848260208601611255565b91505092915050565b60008060006060848603121561130557611304610f77565b5b600061131386828701611000565b935050602084013567ffffffffffffffff81111561133457611333610f7c565b5b611340868287016112be565b925050604061135186828701611000565b9150509250925092565b60006020828403121561137157611370610f77565b5b600061137f84828501610fca565b91505092915050565b6000806040838503121561139f5761139e610f77565b5b60006113ad85828601610fca565b92505060206113be85828601610fca565b9150509250929050565b7f4e487b7100000000000000000000000000000000000000000000000000000000600052602260045260246000fd5b6000600282049050600182168061140f57607f821691505b60208210811415611423576114226113c8565b5b50919050565b7f4e487b7100000000000000000000000000000000000000000000000000000000600052601160045260246000fd5b600061146382610fdf565b915061146e83610fdf565b9250817fffffffffffffffffffffffffffffffffffffffffffffffffffffffffffffffff04831182151516156114a7576114a6611429565b5b828202905092915050565b7f4e6f7420656e6f75676820706f6f6c206d6f6e65790000000000000000000000600082015250565b60006114e8601583610ebd565b91506114f3826114b2565b602082019050919050565b60006020820190508181036000830152611517816114db565b9050919050565b7f41746c65617374206120776569206d7573742062652073656e74000000000000600082015250565b6000611554601a83610ebd565b915061155f8261151e565b602082019050919050565b6000602082019050818103600083015261158381611547565b9050919050565b7f4e6f7420656e6f7567682062616c616e63650000000000000000000000000000600082015250565b60006115c0601283610ebd565b91506115cb8261158a565b602082019050919050565b600060208201905081810360008301526115ef816115b3565b9050919050565b6000819050919050565b6000819050919050565b61161b611616826115f6565b611600565b82525050565b6000819050919050565b61163c61163782610fdf565b611621565b82525050565b600061164e828561160a565b60208201915061165e828461162b565b6020820191508190509392505050565b7f4e487b7100000000000000000000000000000000000000000000000000000000600052601260045260246000fd5b60006116a882610fdf565b91506116b383610fdf565b9250826116c3576116c261166e565b5b828206905092915050565b7f4e487b7100000000000000000000000000000000000000000000000000000000600052602160045260246000fd5b6003811061170e5761170d6116ce565b5b50565b600081905061171f826116fd565b919050565b600061172f82611711565b9050919050565b61173f81611724565b82525050565b600060408201905061175a6000830185611736565b611767602083018461108b565b9392505050565b600061177982610fdf565b915061178483610fdf565b9250827fffffffffffffffffffffffffffffffffffffffffffffffffffffffffffffffff038211156117b9576117b8611429565b5b828201905092915050565b7f4e487b7100000000000000000000000000000000000000000000000000000000600052603260045260246000fd5b60006117fe82610fdf565b91507fffffffffffffffffffffffffffffffffffffffffffffffffffffffffffffffff82141561183157611830611429565b5b600182019050919050565b7f45524332303a2064656372656173656420616c6c6f77616e63652062656c6f7760008201527f207a65726f000000000000000000000000000000000000000000000000000000602082015250565b6000611898602583610ebd565b91506118a38261183c565b604082019050919050565b600060208201905081810360008301526118c78161188b565b9050919050565b7f45524332303a20617070726f76652066726f6d20746865207a65726f2061646460008201527f7265737300000000000000000000000000000000000000000000000000000000602082015250565b600061192a602483610ebd565b9150611935826118ce565b604082019050919050565b600060208201905081810360008301526119598161191d565b9050919050565b7f45524332303a20617070726f766520746f20746865207a65726f20616464726560008201527f7373000000000000000000000000000000000000000000000000000000000000602082015250565b60006119bc602283610ebd565b91506119c782611960565b604082019050919050565b600060208201905081810360008301526119eb816119af565b9050919050565b7f45524332303a20696e73756666696369656e7420616c6c6f77616e6365000000600082015250565b6000611a28601d83610ebd565b9150611a33826119f2565b602082019050919050565b60006020820190508181036000830152611a5781611a1b565b9050919050565b7f45524332303a207472616e736665722066726f6d20746865207a65726f20616460008201527f6472657373000000000000000000000000000000000000000000000000000000602082015250565b6000611aba602583610ebd565b9150611ac582611a5e565b604082019050919050565b60006020820190508181036000830152611ae981611aad565b9050919050565b7f45524332303a207472616e7366657220746f20746865207a65726f206164647260008201527f6573730000000000000000000000000000000000000000000000000000000000602082015250565b6000611b4c602383610ebd565b9150611b5782611af0565b604082019050919050565b60006020820190508181036000830152611b7b81611b3f565b9050919050565b7f45524332303a207472616e7366657220616d6f756e742065786365656473206260008201527f616c616e63650000000000000000000000000000000000000000000000000000602082015250565b6000611bde602683610ebd565b9150611be982611b82565b604082019050919050565b60006020820190508181036000830152611c0d81611bd1565b9050919050565b7f45524332303a206d696e7420746f20746865207a65726f206164647265737300600082015250565b6000611c4a601f83610ebd565b9150611c5582611c14565b602082019050919050565b60006020820190508181036000830152611c7981611c3d565b905091905056fea2646970667358221220294f9ec550b8ae201c8a48d3862a4d72ea37c75a20c9be70f0664e6e76f3257f64736f6c634300080b0033",
  "immutableReferences": {},
  "source": "pragma solidity ^0.8.0;\nimport \"../node_modules/@openzeppelin/contracts/token/ERC20/ERC20.sol\";\n\ncontract luckySevenERC20 is ERC20(\"LuckySeven\", \"L7\") {\n    enum choices {\n        below_seven,\n        seven,\n        above_seven\n    }\n\n    function mint(\n        uint256 amount,\n        address[] memory players,\n        uint256 playerAmount\n    ) public {\n        _mint(address(this), amount);\n        for (uint256 i = 0; i < players.length; i++) {\n            _mint(players[i], playerAmount);\n        }\n    }\n\n    event output(choices userChoice, uint256 result);\n\n    function getLucky(choices choice, uint256 bet) public {\n        require(balanceOf(address(this)) >= 2 * bet, \"Not enough pool money\");\n        require(bet > 0, \"Atleast a wei must be sent\");\n        require(balanceOf(msg.sender) >= bet, \"Not enough balance\");\n        uint256 result = uint256(\n            keccak256(\n                abi.encodePacked(blockhash(block.number), block.timestamp)\n            )\n        ) % 14;\n        if (\n            (result == 7 && choice == choices.seven) ||\n            (result < 7 && choice == choices.below_seven) ||\n            (result > 7 && choice == choices.above_seven)\n        ) {\n            _transfer(address(this),msg.sender,bet);\n        } else {\n            transfer(address(this), bet);\n        }\n        emit output(choice, result);\n    }\n}\n",
  "sourcePath": "/home/mnr/workspace/Ethereum_course/Ethereum_development/3_Lucky_Seven_ERC20/contracts/3_Luck_Seven_ERC20.sol",
  "compiler": {
    "name": "solc",
    "version": "0.8.11+commit.d7f03943.Emscripten.clang"
  },
  "schemaVersion": "3.4.4",
  "updatedAt": "2022-12-31T08:35:20.905Z",
  "networkType": "ethereum",
  "devdoc": {
    "kind": "dev",
    "methods": {
      "allowance(address,address)": {
        "details": "See {IERC20-allowance}."
      },
      "approve(address,uint256)": {
        "details": "See {IERC20-approve}. NOTE: If `amount` is the maximum `uint256`, the allowance is not updated on `transferFrom`. This is semantically equivalent to an infinite approval. Requirements: - `spender` cannot be the zero address."
      },
      "balanceOf(address)": {
        "details": "See {IERC20-balanceOf}."
      },
      "decimals()": {
        "details": "Returns the number of decimals used to get its user representation. For example, if `decimals` equals `2`, a balance of `505` tokens should be displayed to a user as `5.05` (`505 / 10 ** 2`). Tokens usually opt for a value of 18, imitating the relationship between Ether and Wei. This is the value {ERC20} uses, unless this function is overridden; NOTE: This information is only used for _display_ purposes: it in no way affects any of the arithmetic of the contract, including {IERC20-balanceOf} and {IERC20-transfer}."
      },
      "decreaseAllowance(address,uint256)": {
        "details": "Atomically decreases the allowance granted to `spender` by the caller. This is an alternative to {approve} that can be used as a mitigation for problems described in {IERC20-approve}. Emits an {Approval} event indicating the updated allowance. Requirements: - `spender` cannot be the zero address. - `spender` must have allowance for the caller of at least `subtractedValue`."
      },
      "increaseAllowance(address,uint256)": {
        "details": "Atomically increases the allowance granted to `spender` by the caller. This is an alternative to {approve} that can be used as a mitigation for problems described in {IERC20-approve}. Emits an {Approval} event indicating the updated allowance. Requirements: - `spender` cannot be the zero address."
      },
      "name()": {
        "details": "Returns the name of the token."
      },
      "symbol()": {
        "details": "Returns the symbol of the token, usually a shorter version of the name."
      },
      "totalSupply()": {
        "details": "See {IERC20-totalSupply}."
      },
      "transfer(address,uint256)": {
        "details": "See {IERC20-transfer}. Requirements: - `to` cannot be the zero address. - the caller must have a balance of at least `amount`."
      },
      "transferFrom(address,address,uint256)": {
        "details": "See {IERC20-transferFrom}. Emits an {Approval} event indicating the updated allowance. This is not required by the EIP. See the note at the beginning of {ERC20}. NOTE: Does not update the allowance if the current allowance is the maximum `uint256`. Requirements: - `from` and `to` cannot be the zero address. - `from` must have a balance of at least `amount`. - the caller must have allowance for ``from``'s tokens of at least `amount`."
      }
    },
    "version": 1
  },
  "userdoc": {
    "kind": "user",
    "methods": {},
    "version": 1
  }
}