{
  "contractName": "certificateNFT",
  "abi": [
    {
      "anonymous": false,
      "inputs": [
        {
          "indexed": true,
          "internalType": "address",
          "name": "owner",
          "type": "address"
        },
        {
          "indexed": true,
          "internalType": "address",
          "name": "approved",
          "type": "address"
        },
        {
          "indexed": true,
          "internalType": "uint256",
          "name": "tokenId",
          "type": "uint256"
        }
      ],
      "name": "Approval",
      "type": "event"
    },
    {
      "anonymous": false,
      "inputs": [
        {
          "indexed": true,
          "internalType": "address",
          "name": "owner",
          "type": "address"
        },
        {
          "indexed": true,
          "internalType": "address",
          "name": "operator",
          "type": "address"
        },
        {
          "indexed": false,
          "internalType": "bool",
          "name": "approved",
          "type": "bool"
        }
      ],
      "name": "ApprovalForAll",
      "type": "event"
    },
    {
      "anonymous": false,
      "inputs": [
        {
          "indexed": true,
          "internalType": "address",
          "name": "from",
          "type": "address"
        },
        {
          "indexed": true,
          "internalType": "address",
          "name": "to",
          "type": "address"
        },
        {
          "indexed": true,
          "internalType": "uint256",
          "name": "tokenId",
          "type": "uint256"
        }
      ],
      "name": "Transfer",
      "type": "event"
    },
    {
      "anonymous": false,
      "inputs": [
        {
          "indexed": false,
          "internalType": "uint32",
          "name": "id",
          "type": "uint32"
        },
        {
          "indexed": false,
          "internalType": "string",
          "name": "name",
          "type": "string"
        },
        {
          "indexed": false,
          "internalType": "string",
          "name": "affiliation",
          "type": "string"
        }
      ],
      "name": "certificateMinted",
      "type": "event"
    },
    {
      "inputs": [
        {
          "internalType": "address",
          "name": "to",
          "type": "address"
        },
        {
          "internalType": "uint256",
          "name": "tokenId",
          "type": "uint256"
        }
      ],
      "name": "approve",
      "outputs": [],
      "stateMutability": "nonpayable",
      "type": "function"
    },
    {
      "inputs": [
        {
          "internalType": "address",
          "name": "owner",
          "type": "address"
        }
      ],
      "name": "balanceOf",
      "outputs": [
        {
          "internalType": "uint256",
          "name": "",
          "type": "uint256"
        }
      ],
      "stateMutability": "view",
      "type": "function",
      "constant": true
    },
    {
      "inputs": [
        {
          "internalType": "uint256",
          "name": "tokenId",
          "type": "uint256"
        }
      ],
      "name": "getApproved",
      "outputs": [
        {
          "internalType": "address",
          "name": "",
          "type": "address"
        }
      ],
      "stateMutability": "view",
      "type": "function",
      "constant": true
    },
    {
      "inputs": [
        {
          "internalType": "uint256",
          "name": "",
          "type": "uint256"
        }
      ],
      "name": "ids",
      "outputs": [
        {
          "internalType": "uint256",
          "name": "",
          "type": "uint256"
        }
      ],
      "stateMutability": "view",
      "type": "function",
      "constant": true
    },
    {
      "inputs": [
        {
          "internalType": "address",
          "name": "owner",
          "type": "address"
        },
        {
          "internalType": "address",
          "name": "operator",
          "type": "address"
        }
      ],
      "name": "isApprovedForAll",
      "outputs": [
        {
          "internalType": "bool",
          "name": "",
          "type": "bool"
        }
      ],
      "stateMutability": "view",
      "type": "function",
      "constant": true
    },
    {
      "inputs": [],
      "name": "name",
      "outputs": [
        {
          "internalType": "string",
          "name": "",
          "type": "string"
        }
      ],
      "stateMutability": "view",
      "type": "function",
      "constant": true
    },
    {
      "inputs": [],
      "name": "numberOfNFTs",
      "outputs": [
        {
          "internalType": "uint256",
          "name": "",
          "type": "uint256"
        }
      ],
      "stateMutability": "view",
      "type": "function",
      "constant": true
    },
    {
      "inputs": [
        {
          "internalType": "uint256",
          "name": "tokenId",
          "type": "uint256"
        }
      ],
      "name": "ownerOf",
      "outputs": [
        {
          "internalType": "address",
          "name": "",
          "type": "address"
        }
      ],
      "stateMutability": "view",
      "type": "function",
      "constant": true
    },
    {
      "inputs": [
        {
          "internalType": "uint32",
          "name": "",
          "type": "uint32"
        }
      ],
      "name": "pariticipentExsists",
      "outputs": [
        {
          "internalType": "bool",
          "name": "",
          "type": "bool"
        }
      ],
      "stateMutability": "view",
      "type": "function",
      "constant": true
    },
    {
      "inputs": [
        {
          "internalType": "uint32",
          "name": "",
          "type": "uint32"
        }
      ],
      "name": "pariticipents",
      "outputs": [
        {
          "internalType": "string",
          "name": "name",
          "type": "string"
        },
        {
          "internalType": "string",
          "name": "affiliation",
          "type": "string"
        }
      ],
      "stateMutability": "view",
      "type": "function",
      "constant": true
    },
    {
      "inputs": [
        {
          "internalType": "address",
          "name": "from",
          "type": "address"
        },
        {
          "internalType": "address",
          "name": "to",
          "type": "address"
        },
        {
          "internalType": "uint256",
          "name": "tokenId",
          "type": "uint256"
        }
      ],
      "name": "safeTransferFrom",
      "outputs": [],
      "stateMutability": "nonpayable",
      "type": "function"
    },
    {
      "inputs": [
        {
          "internalType": "address",
          "name": "from",
          "type": "address"
        },
        {
          "internalType": "address",
          "name": "to",
          "type": "address"
        },
        {
          "internalType": "uint256",
          "name": "tokenId",
          "type": "uint256"
        },
        {
          "internalType": "bytes",
          "name": "data",
          "type": "bytes"
        }
      ],
      "name": "safeTransferFrom",
      "outputs": [],
      "stateMutability": "nonpayable",
      "type": "function"
    },
    {
      "inputs": [
        {
          "internalType": "address",
          "name": "operator",
          "type": "address"
        },
        {
          "internalType": "bool",
          "name": "approved",
          "type": "bool"
        }
      ],
      "name": "setApprovalForAll",
      "outputs": [],
      "stateMutability": "nonpayable",
      "type": "function"
    },
    {
      "inputs": [
        {
          "internalType": "bytes4",
          "name": "interfaceId",
          "type": "bytes4"
        }
      ],
      "name": "supportsInterface",
      "outputs": [
        {
          "internalType": "bool",
          "name": "",
          "type": "bool"
        }
      ],
      "stateMutability": "view",
      "type": "function",
      "constant": true
    },
    {
      "inputs": [],
      "name": "symbol",
      "outputs": [
        {
          "internalType": "string",
          "name": "",
          "type": "string"
        }
      ],
      "stateMutability": "view",
      "type": "function",
      "constant": true
    },
    {
      "inputs": [
        {
          "internalType": "uint256",
          "name": "tokenId",
          "type": "uint256"
        }
      ],
      "name": "tokenURI",
      "outputs": [
        {
          "internalType": "string",
          "name": "",
          "type": "string"
        }
      ],
      "stateMutability": "view",
      "type": "function",
      "constant": true
    },
    {
      "inputs": [
        {
          "internalType": "address",
          "name": "from",
          "type": "address"
        },
        {
          "internalType": "address",
          "name": "to",
          "type": "address"
        },
        {
          "internalType": "uint256",
          "name": "tokenId",
          "type": "uint256"
        }
      ],
      "name": "transferFrom",
      "outputs": [],
      "stateMutability": "nonpayable",
      "type": "function"
    },
    {
      "inputs": [
        {
          "internalType": "string",
          "name": "name",
          "type": "string"
        },
        {
          "internalType": "string",
          "name": "affiliation",
          "type": "string"
        }
      ],
      "name": "mint",
      "outputs": [],
      "stateMutability": "nonpayable",
      "type": "function"
    }
  ],
  "bytecode": "0x608060405260006009553480156200001657600080fd5b506040518060400160405280600981526020017f58617669657246445000000000000000000000000000000000000000000000008152506040518060400160405280600681526020017f586176696572000000000000000000000000000000000000000000000000000081525081600090805190602001906200009b929190620000bd565b508060019080519060200190620000b4929190620000bd565b505050620001d2565b828054620000cb906200019c565b90600052602060002090601f016020900481019282620000ef57600085556200013b565b82601f106200010a57805160ff19168380011785556200013b565b828001600101855582156200013b579182015b828111156200013a5782518255916020019190600101906200011d565b5b5090506200014a91906200014e565b5090565b5b80821115620001695760008160009055506001016200014f565b5090565b7f4e487b7100000000000000000000000000000000000000000000000000000000600052602260045260246000fd5b60006002820490506001821680620001b557607f821691505b60208210811415620001cc57620001cb6200016d565b5b50919050565b612dd880620001e26000396000f3fe608060405234801561001057600080fd5b50600436106101165760003560e01c80638aa0fdad116100a2578063c87b56dd11610071578063c87b56dd146102ef578063e18059b41461031f578063e985e9c51461033d578063f378d7c81461036d578063fac333ac1461039e57610116565b80638aa0fdad1461027d57806395d89b4114610299578063a22cb465146102b7578063b88d4fde146102d357610116565b806323b872dd116100e957806323b872dd146101b557806334ab27f9146101d157806342842e0e146102015780636352211e1461021d57806370a082311461024d57610116565b806301ffc9a71461011b57806306fdde031461014b578063081812fc14610169578063095ea7b314610199575b600080fd5b61013560048036038101906101309190611d4f565b6103ce565b6040516101429190611d97565b60405180910390f35b6101536104b0565b6040516101609190611e4b565b60405180910390f35b610183600480360381019061017e9190611ea3565b610542565b6040516101909190611f11565b60405180910390f35b6101b360048036038101906101ae9190611f58565b610588565b005b6101cf60048036038101906101ca9190611f98565b6106a0565b005b6101eb60048036038101906101e69190612027565b610700565b6040516101f89190611d97565b60405180910390f35b61021b60048036038101906102169190611f98565b610720565b005b61023760048036038101906102329190611ea3565b610740565b6040516102449190611f11565b60405180910390f35b61026760048036038101906102629190612054565b6107c7565b6040516102749190612090565b60405180910390f35b610297600480360381019061029291906121e0565b61087f565b005b6102a1610a59565b6040516102ae9190611e4b565b60405180910390f35b6102d160048036038101906102cc9190612284565b610aeb565b005b6102ed60048036038101906102e89190612365565b610b01565b005b61030960048036038101906103049190611ea3565b610b63565b6040516103169190611e4b565b60405180910390f35b610327610bcb565b6040516103349190612090565b60405180910390f35b610357600480360381019061035291906123e8565b610bd1565b6040516103649190611d97565b60405180910390f35b61038760048036038101906103829190612027565b610c65565b604051610395929190612428565b60405180910390f35b6103b860048036038101906103b39190611ea3565b610d99565b6040516103c59190612090565b60405180910390f35b60007f80ac58cd000000000000000000000000000000000000000000000000000000007bffffffffffffffffffffffffffffffffffffffffffffffffffffffff1916827bffffffffffffffffffffffffffffffffffffffffffffffffffffffff1916148061049957507f5b5e139f000000000000000000000000000000000000000000000000000000007bffffffffffffffffffffffffffffffffffffffffffffffffffffffff1916827bffffffffffffffffffffffffffffffffffffffffffffffffffffffff1916145b806104a957506104a882610dbd565b5b9050919050565b6060600080546104bf9061248e565b80601f01602080910402602001604051908101604052809291908181526020018280546104eb9061248e565b80156105385780601f1061050d57610100808354040283529160200191610538565b820191906000526020600020905b81548152906001019060200180831161051b57829003601f168201915b5050505050905090565b600061054d82610e27565b6004600083815260200190815260200160002060009054906101000a900473ffffffffffffffffffffffffffffffffffffffff169050919050565b600061059382610740565b90508073ffffffffffffffffffffffffffffffffffffffff168373ffffffffffffffffffffffffffffffffffffffff161415610604576040517f08c379a00000000000000000000000000000000000000000000000000000000081526004016105fb90612532565b60405180910390fd5b8073ffffffffffffffffffffffffffffffffffffffff16610623610e72565b73ffffffffffffffffffffffffffffffffffffffff16148061065257506106518161064c610e72565b610bd1565b5b610691576040517f08c379a0000000000000000000000000000000000000000000000000000000008152600401610688906125c4565b60405180910390fd5b61069b8383610e7a565b505050565b6106b16106ab610e72565b82610f33565b6106f0576040517f08c379a00000000000000000000000000000000000000000000000000000000081526004016106e790612656565b60405180910390fd5b6106fb838383610fc8565b505050565b60076020528060005260406000206000915054906101000a900460ff1681565b61073b83838360405180602001604052806000815250610b01565b505050565b60008061074c836112c2565b9050600073ffffffffffffffffffffffffffffffffffffffff168173ffffffffffffffffffffffffffffffffffffffff1614156107be576040517f08c379a00000000000000000000000000000000000000000000000000000000081526004016107b5906126c2565b60405180910390fd5b80915050919050565b60008073ffffffffffffffffffffffffffffffffffffffff168273ffffffffffffffffffffffffffffffffffffffff161415610838576040517f08c379a000000000000000000000000000000000000000000000000000000000815260040161082f90612754565b60405180910390fd5b600360008373ffffffffffffffffffffffffffffffffffffffff1673ffffffffffffffffffffffffffffffffffffffff168152602001908152602001600020549050919050565b600082826040516020016108949291906127b0565b6040516020818303038152906040528051906020012060001c9050600760008263ffffffff1663ffffffff16815260200190815260200160002060009054906101000a900460ff161561091c576040517f08c379a000000000000000000000000000000000000000000000000000000000815260040161091390612820565b60405180910390fd5b6001600760008363ffffffff1663ffffffff16815260200190815260200160002060006101000a81548160ff02191690831515021790555082600660008363ffffffff1663ffffffff168152602001908152602001600020600001908051906020019061098a929190611c40565b5081600660008363ffffffff1663ffffffff16815260200190815260200160002060010190805190602001906109c1929190611c40565b50600881908060018154018082558091505060019003906000526020600020016000909163ffffffff1690919091505560096000815480929190610a049061286f565b9190505550610a19338263ffffffff166112ff565b7f341fd387ecc4dd8ef28d3c14225a3cd0a5378a53d7a161e9ba44b70eb0470548818484604051610a4c939291906128c7565b60405180910390a1505050565b606060018054610a689061248e565b80601f0160208091040260200160405190810160405280929190818152602001828054610a949061248e565b8015610ae15780601f10610ab657610100808354040283529160200191610ae1565b820191906000526020600020905b815481529060010190602001808311610ac457829003601f168201915b5050505050905090565b610afd610af6610e72565b838361151d565b5050565b610b12610b0c610e72565b83610f33565b610b51576040517f08c379a0000000000000000000000000000000000000000000000000000000008152600401610b4890612656565b60405180910390fd5b610b5d8484848461168a565b50505050565b6060610b6e82610e27565b6000610b786116e6565b90506000815111610b985760405180602001604052806000815250610bc3565b80610ba2846116fd565b604051602001610bb39291906127b0565b6040516020818303038152906040525b915050919050565b60095481565b6000600560008473ffffffffffffffffffffffffffffffffffffffff1673ffffffffffffffffffffffffffffffffffffffff16815260200190815260200160002060008373ffffffffffffffffffffffffffffffffffffffff1673ffffffffffffffffffffffffffffffffffffffff16815260200190815260200160002060009054906101000a900460ff16905092915050565b6006602052806000526040600020600091509050806000018054610c889061248e565b80601f0160208091040260200160405190810160405280929190818152602001828054610cb49061248e565b8015610d015780601f10610cd657610100808354040283529160200191610d01565b820191906000526020600020905b815481529060010190602001808311610ce457829003601f168201915b505050505090806001018054610d169061248e565b80601f0160208091040260200160405190810160405280929190818152602001828054610d429061248e565b8015610d8f5780601f10610d6457610100808354040283529160200191610d8f565b820191906000526020600020905b815481529060010190602001808311610d7257829003601f168201915b5050505050905082565b60088181548110610da957600080fd5b906000526020600020016000915090505481565b60007f01ffc9a7000000000000000000000000000000000000000000000000000000007bffffffffffffffffffffffffffffffffffffffffffffffffffffffff1916827bffffffffffffffffffffffffffffffffffffffffffffffffffffffff1916149050919050565b610e30816117d5565b610e6f576040517f08c379a0000000000000000000000000000000000000000000000000000000008152600401610e66906126c2565b60405180910390fd5b50565b600033905090565b816004600083815260200190815260200160002060006101000a81548173ffffffffffffffffffffffffffffffffffffffff021916908373ffffffffffffffffffffffffffffffffffffffff160217905550808273ffffffffffffffffffffffffffffffffffffffff16610eed83610740565b73ffffffffffffffffffffffffffffffffffffffff167f8c5be1e5ebec7d5bd14f71427d1e84f3dd0314c0f7b2291e5b200ac8c7c3b92560405160405180910390a45050565b600080610f3f83610740565b90508073ffffffffffffffffffffffffffffffffffffffff168473ffffffffffffffffffffffffffffffffffffffff161480610f815750610f808185610bd1565b5b80610fbf57508373ffffffffffffffffffffffffffffffffffffffff16610fa784610542565b73ffffffffffffffffffffffffffffffffffffffff16145b91505092915050565b8273ffffffffffffffffffffffffffffffffffffffff16610fe882610740565b73ffffffffffffffffffffffffffffffffffffffff161461103e576040517f08c379a00000000000000000000000000000000000000000000000000000000081526004016110359061297e565b60405180910390fd5b600073ffffffffffffffffffffffffffffffffffffffff168273ffffffffffffffffffffffffffffffffffffffff1614156110ae576040517f08c379a00000000000000000000000000000000000000000000000000000000081526004016110a590612a10565b60405180910390fd5b6110bb8383836001611816565b8273ffffffffffffffffffffffffffffffffffffffff166110db82610740565b73ffffffffffffffffffffffffffffffffffffffff1614611131576040517f08c379a00000000000000000000000000000000000000000000000000000000081526004016111289061297e565b60405180910390fd5b6004600082815260200190815260200160002060006101000a81549073ffffffffffffffffffffffffffffffffffffffff02191690556001600360008573ffffffffffffffffffffffffffffffffffffffff1673ffffffffffffffffffffffffffffffffffffffff168152602001908152602001600020600082825403925050819055506001600360008473ffffffffffffffffffffffffffffffffffffffff1673ffffffffffffffffffffffffffffffffffffffff16815260200190815260200160002060008282540192505081905550816002600083815260200190815260200160002060006101000a81548173ffffffffffffffffffffffffffffffffffffffff021916908373ffffffffffffffffffffffffffffffffffffffff160217905550808273ffffffffffffffffffffffffffffffffffffffff168473ffffffffffffffffffffffffffffffffffffffff167fddf252ad1be2c89b69c2b068fc378daa952ba7f163c4a11628f55a4df523b3ef60405160405180910390a46112bd838383600161193c565b505050565b60006002600083815260200190815260200160002060009054906101000a900473ffffffffffffffffffffffffffffffffffffffff169050919050565b600073ffffffffffffffffffffffffffffffffffffffff168273ffffffffffffffffffffffffffffffffffffffff16141561136f576040517f08c379a000000000000000000000000000000000000000000000000000000000815260040161136690612a7c565b60405180910390fd5b611378816117d5565b156113b8576040517f08c379a00000000000000000000000000000000000000000000000000000000081526004016113af90612ae8565b60405180910390fd5b6113c6600083836001611816565b6113cf816117d5565b1561140f576040517f08c379a000000000000000000000000000000000000000000000000000000000815260040161140690612ae8565b60405180910390fd5b6001600360008473ffffffffffffffffffffffffffffffffffffffff1673ffffffffffffffffffffffffffffffffffffffff16815260200190815260200160002060008282540192505081905550816002600083815260200190815260200160002060006101000a81548173ffffffffffffffffffffffffffffffffffffffff021916908373ffffffffffffffffffffffffffffffffffffffff160217905550808273ffffffffffffffffffffffffffffffffffffffff16600073ffffffffffffffffffffffffffffffffffffffff167fddf252ad1be2c89b69c2b068fc378daa952ba7f163c4a11628f55a4df523b3ef60405160405180910390a461151960008383600161193c565b5050565b8173ffffffffffffffffffffffffffffffffffffffff168373ffffffffffffffffffffffffffffffffffffffff16141561158c576040517f08c379a000000000000000000000000000000000000000000000000000000000815260040161158390612b54565b60405180910390fd5b80600560008573ffffffffffffffffffffffffffffffffffffffff1673ffffffffffffffffffffffffffffffffffffffff16815260200190815260200160002060008473ffffffffffffffffffffffffffffffffffffffff1673ffffffffffffffffffffffffffffffffffffffff16815260200190815260200160002060006101000a81548160ff0219169083151502179055508173ffffffffffffffffffffffffffffffffffffffff168373ffffffffffffffffffffffffffffffffffffffff167f17307eab39ab6107e8899845ad3d59bd9653f200f220920489ca2b5937696c318360405161167d9190611d97565b60405180910390a3505050565b611695848484610fc8565b6116a184848484611942565b6116e0576040517f08c379a00000000000000000000000000000000000000000000000000000000081526004016116d790612be6565b60405180910390fd5b50505050565b606060405180602001604052806000815250905090565b60606000600161170c84611aca565b01905060008167ffffffffffffffff81111561172b5761172a6120b5565b5b6040519080825280601f01601f19166020018201604052801561175d5781602001600182028036833780820191505090505b509050600082602001820190505b6001156117ca578080600190039150507f3031323334353637383961626364656600000000000000000000000000000000600a86061a8153600a85816117b4576117b3612c06565b5b04945060008514156117c5576117ca565b61176b565b819350505050919050565b60008073ffffffffffffffffffffffffffffffffffffffff166117f7836112c2565b73ffffffffffffffffffffffffffffffffffffffff1614159050919050565b600181111561193657600073ffffffffffffffffffffffffffffffffffffffff168473ffffffffffffffffffffffffffffffffffffffff16146118aa5780600360008673ffffffffffffffffffffffffffffffffffffffff1673ffffffffffffffffffffffffffffffffffffffff16815260200190815260200160002060008282546118a29190612c35565b925050819055505b600073ffffffffffffffffffffffffffffffffffffffff168373ffffffffffffffffffffffffffffffffffffffff16146119355780600360008573ffffffffffffffffffffffffffffffffffffffff1673ffffffffffffffffffffffffffffffffffffffff168152602001908152602001600020600082825461192d9190612c69565b925050819055505b5b50505050565b50505050565b60006119638473ffffffffffffffffffffffffffffffffffffffff16611c1d565b15611abd578373ffffffffffffffffffffffffffffffffffffffff1663150b7a0261198c610e72565b8786866040518563ffffffff1660e01b81526004016119ae9493929190612d14565b6020604051808303816000875af19250505080156119ea57506040513d601f19601f820116820180604052508101906119e79190612d75565b60015b611a6d573d8060008114611a1a576040519150601f19603f3d011682016040523d82523d6000602084013e611a1f565b606091505b50600081511415611a65576040517f08c379a0000000000000000000000000000000000000000000000000000000008152600401611a5c90612be6565b60405180910390fd5b805181602001fd5b63150b7a0260e01b7bffffffffffffffffffffffffffffffffffffffffffffffffffffffff1916817bffffffffffffffffffffffffffffffffffffffffffffffffffffffff191614915050611ac2565b600190505b949350505050565b600080600090507a184f03e93ff9f4daa797ed6e38ed64bf6a1f0100000000000000008310611b28577a184f03e93ff9f4daa797ed6e38ed64bf6a1f0100000000000000008381611b1e57611b1d612c06565b5b0492506040810190505b6d04ee2d6d415b85acef81000000008310611b65576d04ee2d6d415b85acef81000000008381611b5b57611b5a612c06565b5b0492506020810190505b662386f26fc100008310611b9457662386f26fc100008381611b8a57611b89612c06565b5b0492506010810190505b6305f5e1008310611bbd576305f5e1008381611bb357611bb2612c06565b5b0492506008810190505b6127108310611be2576127108381611bd857611bd7612c06565b5b0492506004810190505b60648310611c055760648381611bfb57611bfa612c06565b5b0492506002810190505b600a8310611c14576001810190505b80915050919050565b6000808273ffffffffffffffffffffffffffffffffffffffff163b119050919050565b828054611c4c9061248e565b90600052602060002090601f016020900481019282611c6e5760008555611cb5565b82601f10611c8757805160ff1916838001178555611cb5565b82800160010185558215611cb5579182015b82811115611cb4578251825591602001919060010190611c99565b5b509050611cc29190611cc6565b5090565b5b80821115611cdf576000816000905550600101611cc7565b5090565b6000604051905090565b600080fd5b600080fd5b60007fffffffff0000000000000000000000000000000000000000000000000000000082169050919050565b611d2c81611cf7565b8114611d3757600080fd5b50565b600081359050611d4981611d23565b92915050565b600060208284031215611d6557611d64611ced565b5b6000611d7384828501611d3a565b91505092915050565b60008115159050919050565b611d9181611d7c565b82525050565b6000602082019050611dac6000830184611d88565b92915050565b600081519050919050565b600082825260208201905092915050565b60005b83811015611dec578082015181840152602081019050611dd1565b83811115611dfb576000848401525b50505050565b6000601f19601f8301169050919050565b6000611e1d82611db2565b611e278185611dbd565b9350611e37818560208601611dce565b611e4081611e01565b840191505092915050565b60006020820190508181036000830152611e658184611e12565b905092915050565b6000819050919050565b611e8081611e6d565b8114611e8b57600080fd5b50565b600081359050611e9d81611e77565b92915050565b600060208284031215611eb957611eb8611ced565b5b6000611ec784828501611e8e565b91505092915050565b600073ffffffffffffffffffffffffffffffffffffffff82169050919050565b6000611efb82611ed0565b9050919050565b611f0b81611ef0565b82525050565b6000602082019050611f266000830184611f02565b92915050565b611f3581611ef0565b8114611f4057600080fd5b50565b600081359050611f5281611f2c565b92915050565b60008060408385031215611f6f57611f6e611ced565b5b6000611f7d85828601611f43565b9250506020611f8e85828601611e8e565b9150509250929050565b600080600060608486031215611fb157611fb0611ced565b5b6000611fbf86828701611f43565b9350506020611fd086828701611f43565b9250506040611fe186828701611e8e565b9150509250925092565b600063ffffffff82169050919050565b61200481611feb565b811461200f57600080fd5b50565b60008135905061202181611ffb565b92915050565b60006020828403121561203d5761203c611ced565b5b600061204b84828501612012565b91505092915050565b60006020828403121561206a57612069611ced565b5b600061207884828501611f43565b91505092915050565b61208a81611e6d565b82525050565b60006020820190506120a56000830184612081565b92915050565b600080fd5b600080fd5b7f4e487b7100000000000000000000000000000000000000000000000000000000600052604160045260246000fd5b6120ed82611e01565b810181811067ffffffffffffffff8211171561210c5761210b6120b5565b5b80604052505050565b600061211f611ce3565b905061212b82826120e4565b919050565b600067ffffffffffffffff82111561214b5761214a6120b5565b5b61215482611e01565b9050602081019050919050565b82818337600083830152505050565b600061218361217e84612130565b612115565b90508281526020810184848401111561219f5761219e6120b0565b5b6121aa848285612161565b509392505050565b600082601f8301126121c7576121c66120ab565b5b81356121d7848260208601612170565b91505092915050565b600080604083850312156121f7576121f6611ced565b5b600083013567ffffffffffffffff81111561221557612214611cf2565b5b612221858286016121b2565b925050602083013567ffffffffffffffff81111561224257612241611cf2565b5b61224e858286016121b2565b9150509250929050565b61226181611d7c565b811461226c57600080fd5b50565b60008135905061227e81612258565b92915050565b6000806040838503121561229b5761229a611ced565b5b60006122a985828601611f43565b92505060206122ba8582860161226f565b9150509250929050565b600067ffffffffffffffff8211156122df576122de6120b5565b5b6122e882611e01565b9050602081019050919050565b6000612308612303846122c4565b612115565b905082815260208101848484011115612324576123236120b0565b5b61232f848285612161565b509392505050565b600082601f83011261234c5761234b6120ab565b5b813561235c8482602086016122f5565b91505092915050565b6000806000806080858703121561237f5761237e611ced565b5b600061238d87828801611f43565b945050602061239e87828801611f43565b93505060406123af87828801611e8e565b925050606085013567ffffffffffffffff8111156123d0576123cf611cf2565b5b6123dc87828801612337565b91505092959194509250565b600080604083850312156123ff576123fe611ced565b5b600061240d85828601611f43565b925050602061241e85828601611f43565b9150509250929050565b600060408201905081810360008301526124428185611e12565b905081810360208301526124568184611e12565b90509392505050565b7f4e487b7100000000000000000000000000000000000000000000000000000000600052602260045260246000fd5b600060028204905060018216806124a657607f821691505b602082108114156124ba576124b961245f565b5b50919050565b7f4552433732313a20617070726f76616c20746f2063757272656e74206f776e6560008201527f7200000000000000000000000000000000000000000000000000000000000000602082015250565b600061251c602183611dbd565b9150612527826124c0565b604082019050919050565b6000602082019050818103600083015261254b8161250f565b9050919050565b7f4552433732313a20617070726f76652063616c6c6572206973206e6f7420746f60008201527f6b656e206f776e6572206f7220617070726f76656420666f7220616c6c000000602082015250565b60006125ae603d83611dbd565b91506125b982612552565b604082019050919050565b600060208201905081810360008301526125dd816125a1565b9050919050565b7f4552433732313a2063616c6c6572206973206e6f7420746f6b656e206f776e6560008201527f72206f7220617070726f76656400000000000000000000000000000000000000602082015250565b6000612640602d83611dbd565b915061264b826125e4565b604082019050919050565b6000602082019050818103600083015261266f81612633565b9050919050565b7f4552433732313a20696e76616c696420746f6b656e2049440000000000000000600082015250565b60006126ac601883611dbd565b91506126b782612676565b602082019050919050565b600060208201905081810360008301526126db8161269f565b9050919050565b7f4552433732313a2061646472657373207a65726f206973206e6f74206120766160008201527f6c6964206f776e65720000000000000000000000000000000000000000000000602082015250565b600061273e602983611dbd565b9150612749826126e2565b604082019050919050565b6000602082019050818103600083015261276d81612731565b9050919050565b600081905092915050565b600061278a82611db2565b6127948185612774565b93506127a4818560208601611dce565b80840191505092915050565b60006127bc828561277f565b91506127c8828461277f565b91508190509392505050565b7f6964206578697374730000000000000000000000000000000000000000000000600082015250565b600061280a600983611dbd565b9150612815826127d4565b602082019050919050565b60006020820190508181036000830152612839816127fd565b9050919050565b7f4e487b7100000000000000000000000000000000000000000000000000000000600052601160045260246000fd5b600061287a82611e6d565b91507fffffffffffffffffffffffffffffffffffffffffffffffffffffffffffffffff8214156128ad576128ac612840565b5b600182019050919050565b6128c181611feb565b82525050565b60006060820190506128dc60008301866128b8565b81810360208301526128ee8185611e12565b905081810360408301526129028184611e12565b9050949350505050565b7f4552433732313a207472616e736665722066726f6d20696e636f72726563742060008201527f6f776e6572000000000000000000000000000000000000000000000000000000602082015250565b6000612968602583611dbd565b91506129738261290c565b604082019050919050565b600060208201905081810360008301526129978161295b565b9050919050565b7f4552433732313a207472616e7366657220746f20746865207a65726f2061646460008201527f7265737300000000000000000000000000000000000000000000000000000000602082015250565b60006129fa602483611dbd565b9150612a058261299e565b604082019050919050565b60006020820190508181036000830152612a29816129ed565b9050919050565b7f4552433732313a206d696e7420746f20746865207a65726f2061646472657373600082015250565b6000612a66602083611dbd565b9150612a7182612a30565b602082019050919050565b60006020820190508181036000830152612a9581612a59565b9050919050565b7f4552433732313a20746f6b656e20616c7265616479206d696e74656400000000600082015250565b6000612ad2601c83611dbd565b9150612add82612a9c565b602082019050919050565b60006020820190508181036000830152612b0181612ac5565b9050919050565b7f4552433732313a20617070726f766520746f2063616c6c657200000000000000600082015250565b6000612b3e601983611dbd565b9150612b4982612b08565b602082019050919050565b60006020820190508181036000830152612b6d81612b31565b9050919050565b7f4552433732313a207472616e7366657220746f206e6f6e20455243373231526560008201527f63656976657220696d706c656d656e7465720000000000000000000000000000602082015250565b6000612bd0603283611dbd565b9150612bdb82612b74565b604082019050919050565b60006020820190508181036000830152612bff81612bc3565b9050919050565b7f4e487b7100000000000000000000000000000000000000000000000000000000600052601260045260246000fd5b6000612c4082611e6d565b9150612c4b83611e6d565b925082821015612c5e57612c5d612840565b5b828203905092915050565b6000612c7482611e6d565b9150612c7f83611e6d565b9250827fffffffffffffffffffffffffffffffffffffffffffffffffffffffffffffffff03821115612cb457612cb3612840565b5b828201905092915050565b600081519050919050565b600082825260208201905092915050565b6000612ce682612cbf565b612cf08185612cca565b9350612d00818560208601611dce565b612d0981611e01565b840191505092915050565b6000608082019050612d296000830187611f02565b612d366020830186611f02565b612d436040830185612081565b8181036060830152612d558184612cdb565b905095945050505050565b600081519050612d6f81611d23565b92915050565b600060208284031215612d8b57612d8a611ced565b5b6000612d9984828501612d60565b9150509291505056fea2646970667358221220b28a87b235008c65ecf3f012d68a5ae8f414254bf97ec7d93dfe19093b3d258b64736f6c634300080b0033",
  "immutableReferences": {},
  "source": "pragma solidity ^0.8.0;\n\nimport \"../../node_modules/@openzeppelin/contracts/token/ERC721/ERC721.sol\";\ncontract certificateNFT is ERC721(\"XavierFDP\",\"Xavier\") {\n    struct participent {\n        string name;\n        string affiliation;\n    }    \n    mapping(uint32=>participent) public pariticipents;\n    mapping(uint32=>bool) public pariticipentExsists;\n    uint[] public ids;\n    uint public numberOfNFTs=0;\n    event certificateMinted(uint32 id, string name, string affiliation);\n    function mint(string memory name, string memory affiliation) public {\n        uint32 id = uint32(uint256(keccak256(abi.encodePacked(name,affiliation))));\n        require(!pariticipentExsists[id],\"id exists\");\n        pariticipentExsists[id] = true;\n        pariticipents[id].name = name;\n        pariticipents[id].affiliation = affiliation;\n        ids.push(id);\n        numberOfNFTs++;\n        _mint(msg.sender, id);\n        emit certificateMinted(id, name, affiliation);\n    }\n}",
  "sourcePath": "/home/mnr/workspace/Ethereum_course/Ethereum_development/6_Certificate_NFT/src/contracts/certificateNFT.sol",
  "compiler": {
    "name": "solc",
    "version": "0.8.11+commit.d7f03943.Emscripten.clang"
  },
  "schemaVersion": "3.4.4",
  "updatedAt": "2023-01-06T02:49:41.053Z",
  "networkType": "ethereum",
  "devdoc": {
    "kind": "dev",
    "methods": {
      "approve(address,uint256)": {
        "details": "See {IERC721-approve}."
      },
      "balanceOf(address)": {
        "details": "See {IERC721-balanceOf}."
      },
      "getApproved(uint256)": {
        "details": "See {IERC721-getApproved}."
      },
      "isApprovedForAll(address,address)": {
        "details": "See {IERC721-isApprovedForAll}."
      },
      "name()": {
        "details": "See {IERC721Metadata-name}."
      },
      "ownerOf(uint256)": {
        "details": "See {IERC721-ownerOf}."
      },
      "safeTransferFrom(address,address,uint256)": {
        "details": "See {IERC721-safeTransferFrom}."
      },
      "safeTransferFrom(address,address,uint256,bytes)": {
        "details": "See {IERC721-safeTransferFrom}."
      },
      "setApprovalForAll(address,bool)": {
        "details": "See {IERC721-setApprovalForAll}."
      },
      "supportsInterface(bytes4)": {
        "details": "See {IERC165-supportsInterface}."
      },
      "symbol()": {
        "details": "See {IERC721Metadata-symbol}."
      },
      "tokenURI(uint256)": {
        "details": "See {IERC721Metadata-tokenURI}."
      },
      "transferFrom(address,address,uint256)": {
        "details": "See {IERC721-transferFrom}."
      }
    },
    "version": 1
  },
  "userdoc": {
    "kind": "user",
    "methods": {},
    "version": 1
  }
}