{
  "contractName": "luckySevenERC20",
  "abi": [
    {
      "inputs": [],
      "stateMutability": "nonpayable",
      "type": "constructor"
    },
    {
      "anonymous": false,
      "inputs": [
        {
          "indexed": true,
          "internalType": "address",
          "name": "owner",
          "type": "address"
        },
        {
          "indexed": true,
          "internalType": "address",
          "name": "spender",
          "type": "address"
        },
        {
          "indexed": false,
          "internalType": "uint256",
          "name": "value",
          "type": "uint256"
        }
      ],
      "name": "Approval",
      "type": "event"
    },
    {
      "anonymous": false,
      "inputs": [
        {
          "indexed": true,
          "internalType": "address",
          "name": "previousOwner",
          "type": "address"
        },
        {
          "indexed": true,
          "internalType": "address",
          "name": "newOwner",
          "type": "address"
        }
      ],
      "name": "OwnershipTransferred",
      "type": "event"
    },
    {
      "anonymous": false,
      "inputs": [
        {
          "indexed": true,
          "internalType": "address",
          "name": "from",
          "type": "address"
        },
        {
          "indexed": true,
          "internalType": "address",
          "name": "to",
          "type": "address"
        },
        {
          "indexed": false,
          "internalType": "uint256",
          "name": "value",
          "type": "uint256"
        }
      ],
      "name": "Transfer",
      "type": "event"
    },
    {
      "anonymous": false,
      "inputs": [
        {
          "indexed": false,
          "internalType": "enum luckySevenERC20.choices",
          "name": "playerChoice",
          "type": "uint8"
        },
        {
          "indexed": false,
          "internalType": "enum luckySevenERC20.choices",
          "name": "computerChoice",
          "type": "uint8"
        },
        {
          "indexed": false,
          "internalType": "bool",
          "name": "result",
          "type": "bool"
        }
      ],
      "name": "output",
      "type": "event"
    },
    {
      "inputs": [
        {
          "internalType": "address",
          "name": "owner",
          "type": "address"
        },
        {
          "internalType": "address",
          "name": "spender",
          "type": "address"
        }
      ],
      "name": "allowance",
      "outputs": [
        {
          "internalType": "uint256",
          "name": "",
          "type": "uint256"
        }
      ],
      "stateMutability": "view",
      "type": "function",
      "constant": true
    },
    {
      "inputs": [
        {
          "internalType": "address",
          "name": "spender",
          "type": "address"
        },
        {
          "internalType": "uint256",
          "name": "amount",
          "type": "uint256"
        }
      ],
      "name": "approve",
      "outputs": [
        {
          "internalType": "bool",
          "name": "",
          "type": "bool"
        }
      ],
      "stateMutability": "nonpayable",
      "type": "function"
    },
    {
      "inputs": [
        {
          "internalType": "address",
          "name": "account",
          "type": "address"
        }
      ],
      "name": "balanceOf",
      "outputs": [
        {
          "internalType": "uint256",
          "name": "",
          "type": "uint256"
        }
      ],
      "stateMutability": "view",
      "type": "function",
      "constant": true
    },
    {
      "inputs": [],
      "name": "decimals",
      "outputs": [
        {
          "internalType": "uint8",
          "name": "",
          "type": "uint8"
        }
      ],
      "stateMutability": "view",
      "type": "function",
      "constant": true
    },
    {
      "inputs": [
        {
          "internalType": "address",
          "name": "spender",
          "type": "address"
        },
        {
          "internalType": "uint256",
          "name": "subtractedValue",
          "type": "uint256"
        }
      ],
      "name": "decreaseAllowance",
      "outputs": [
        {
          "internalType": "bool",
          "name": "",
          "type": "bool"
        }
      ],
      "stateMutability": "nonpayable",
      "type": "function"
    },
    {
      "inputs": [
        {
          "internalType": "address",
          "name": "spender",
          "type": "address"
        },
        {
          "internalType": "uint256",
          "name": "addedValue",
          "type": "uint256"
        }
      ],
      "name": "increaseAllowance",
      "outputs": [
        {
          "internalType": "bool",
          "name": "",
          "type": "bool"
        }
      ],
      "stateMutability": "nonpayable",
      "type": "function"
    },
    {
      "inputs": [],
      "name": "name",
      "outputs": [
        {
          "internalType": "string",
          "name": "",
          "type": "string"
        }
      ],
      "stateMutability": "view",
      "type": "function",
      "constant": true
    },
    {
      "inputs": [],
      "name": "owner",
      "outputs": [
        {
          "internalType": "address",
          "name": "",
          "type": "address"
        }
      ],
      "stateMutability": "view",
      "type": "function",
      "constant": true
    },
    {
      "inputs": [],
      "name": "renounceOwnership",
      "outputs": [],
      "stateMutability": "nonpayable",
      "type": "function"
    },
    {
      "inputs": [],
      "name": "symbol",
      "outputs": [
        {
          "internalType": "string",
          "name": "",
          "type": "string"
        }
      ],
      "stateMutability": "view",
      "type": "function",
      "constant": true
    },
    {
      "inputs": [],
      "name": "totalSupply",
      "outputs": [
        {
          "internalType": "uint256",
          "name": "",
          "type": "uint256"
        }
      ],
      "stateMutability": "view",
      "type": "function",
      "constant": true
    },
    {
      "inputs": [
        {
          "internalType": "address",
          "name": "to",
          "type": "address"
        },
        {
          "internalType": "uint256",
          "name": "amount",
          "type": "uint256"
        }
      ],
      "name": "transfer",
      "outputs": [
        {
          "internalType": "bool",
          "name": "",
          "type": "bool"
        }
      ],
      "stateMutability": "nonpayable",
      "type": "function"
    },
    {
      "inputs": [
        {
          "internalType": "address",
          "name": "from",
          "type": "address"
        },
        {
          "internalType": "address",
          "name": "to",
          "type": "address"
        },
        {
          "internalType": "uint256",
          "name": "amount",
          "type": "uint256"
        }
      ],
      "name": "transferFrom",
      "outputs": [
        {
          "internalType": "bool",
          "name": "",
          "type": "bool"
        }
      ],
      "stateMutability": "nonpayable",
      "type": "function"
    },
    {
      "inputs": [
        {
          "internalType": "address",
          "name": "newOwner",
          "type": "address"
        }
      ],
      "name": "transferOwnership",
      "outputs": [],
      "stateMutability": "nonpayable",
      "type": "function"
    },
    {
      "inputs": [
        {
          "internalType": "address",
          "name": "player",
          "type": "address"
        },
        {
          "internalType": "uint256",
          "name": "amount",
          "type": "uint256"
        }
      ],
      "name": "mint",
      "outputs": [],
      "stateMutability": "nonpayable",
      "type": "function"
    },
    {
      "inputs": [
        {
          "internalType": "enum luckySevenERC20.choices",
          "name": "userChoice",
          "type": "uint8"
        },
        {
          "internalType": "uint256",
          "name": "bet",
          "type": "uint256"
        }
      ],
      "name": "getLucky",
      "outputs": [],
      "stateMutability": "nonpayable",
      "type": "function"
    }
  ],
  "bytecode": "0x60806040523480156200001157600080fd5b506040518060400160405280600a81526020017f4c75636b79536576656e000000000000000000000000000000000000000000008152506040518060400160405280600281526020017f4c3700000000000000000000000000000000000000000000000000000000000081525081600390805190602001906200009692919062000332565b508060049080519060200190620000af92919062000332565b505050620000d2620000c6620000ec60201b60201c565b620000f460201b60201c565b620000e630612710620001ba60201b60201c565b6200058e565b600033905090565b6000600560009054906101000a900473ffffffffffffffffffffffffffffffffffffffff16905081600560006101000a81548173ffffffffffffffffffffffffffffffffffffffff021916908373ffffffffffffffffffffffffffffffffffffffff1602179055508173ffffffffffffffffffffffffffffffffffffffff168173ffffffffffffffffffffffffffffffffffffffff167f8be0079c531659141344cd1fd0a4f28419497f9722a3daafe3b4186f6b6457e060405160405180910390a35050565b600073ffffffffffffffffffffffffffffffffffffffff168273ffffffffffffffffffffffffffffffffffffffff1614156200022d576040517f08c379a0000000000000000000000000000000000000000000000000000000008152600401620002249062000443565b60405180910390fd5b62000241600083836200032860201b60201c565b80600260008282546200025591906200049e565b92505081905550806000808473ffffffffffffffffffffffffffffffffffffffff1673ffffffffffffffffffffffffffffffffffffffff168152602001908152602001600020600082825401925050819055508173ffffffffffffffffffffffffffffffffffffffff16600073ffffffffffffffffffffffffffffffffffffffff167fddf252ad1be2c89b69c2b068fc378daa952ba7f163c4a11628f55a4df523b3ef836040516200030891906200050c565b60405180910390a362000324600083836200032d60201b60201c565b5050565b505050565b505050565b828054620003409062000558565b90600052602060002090601f016020900481019282620003645760008555620003b0565b82601f106200037f57805160ff1916838001178555620003b0565b82800160010185558215620003b0579182015b82811115620003af57825182559160200191906001019062000392565b5b509050620003bf9190620003c3565b5090565b5b80821115620003de576000816000905550600101620003c4565b5090565b600082825260208201905092915050565b7f45524332303a206d696e7420746f20746865207a65726f206164647265737300600082015250565b60006200042b601f83620003e2565b91506200043882620003f3565b602082019050919050565b600060208201905081810360008301526200045e816200041c565b9050919050565b6000819050919050565b7f4e487b7100000000000000000000000000000000000000000000000000000000600052601160045260246000fd5b6000620004ab8262000465565b9150620004b88362000465565b9250827fffffffffffffffffffffffffffffffffffffffffffffffffffffffffffffffff03821115620004f057620004ef6200046f565b5b828201905092915050565b620005068162000465565b82525050565b6000602082019050620005236000830184620004fb565b92915050565b7f4e487b7100000000000000000000000000000000000000000000000000000000600052602260045260246000fd5b600060028204905060018216806200057157607f821691505b6020821081141562000588576200058762000529565b5b50919050565b611d99806200059e6000396000f3fe608060405234801561001057600080fd5b50600436106101005760003560e01c806370a0823111610097578063a457c2d711610066578063a457c2d71461029d578063a9059cbb146102cd578063dd62ed3e146102fd578063f2fde38b1461032d57610100565b806370a0823114610227578063715018a6146102575780638da5cb5b1461026157806395d89b411461027f57610100565b80632b4dec9a116100d35780632b4dec9a146101a1578063313ce567146101bd57806339509351146101db57806340c10f191461020b57610100565b806306fdde0314610105578063095ea7b31461012357806318160ddd1461015357806323b872dd14610171575b600080fd5b61010d610349565b60405161011a9190611136565b60405180910390f35b61013d600480360381019061013891906111f1565b6103db565b60405161014a919061124c565b60405180910390f35b61015b6103fe565b6040516101689190611276565b60405180910390f35b61018b60048036038101906101869190611291565b610408565b604051610198919061124c565b60405180910390f35b6101bb60048036038101906101b69190611309565b610437565b005b6101c561060e565b6040516101d29190611365565b60405180910390f35b6101f560048036038101906101f091906111f1565b610617565b604051610202919061124c565b60405180910390f35b610225600480360381019061022091906111f1565b61064e565b005b610241600480360381019061023c9190611380565b610664565b60405161024e9190611276565b60405180910390f35b61025f6106ac565b005b6102696106c0565b60405161027691906113bc565b60405180910390f35b6102876106ea565b6040516102949190611136565b60405180910390f35b6102b760048036038101906102b291906111f1565b61077c565b6040516102c4919061124c565b60405180910390f35b6102e760048036038101906102e291906111f1565b6107f3565b6040516102f4919061124c565b60405180910390f35b610317600480360381019061031291906113d7565b610816565b6040516103249190611276565b60405180910390f35b61034760048036038101906103429190611380565b61089d565b005b60606003805461035890611446565b80601f016020809104026020016040519081016040528092919081815260200182805461038490611446565b80156103d15780601f106103a6576101008083540402835291602001916103d1565b820191906000526020600020905b8154815290600101906020018083116103b457829003601f168201915b5050505050905090565b6000806103e6610921565b90506103f3818585610929565b600191505092915050565b6000600254905090565b600080610413610921565b9050610420858285610af4565b61042b858585610b80565b60019150509392505050565b80600261044491906114a7565b61044d30610664565b101561048e576040517f08c379a00000000000000000000000000000000000000000000000000000000081526004016104859061154d565b60405180910390fd5b600081116104d1576040517f08c379a00000000000000000000000000000000000000000000000000000000081526004016104c8906115b9565b60405180910390fd5b806104db33610664565b101561051c576040517f08c379a000000000000000000000000000000000000000000000000000000000815260040161051390611625565b60405180910390fd5b6000806000600e434042604051602001610537929190611691565b6040516020818303038152906040528051906020012060001c61055a91906116ec565b90506007811061057b5760078110610573576002610576565b60015b61057e565b60005b91508160028111156105935761059261171d565b5b8560028111156105a6576105a561171d565b5b14156105c057600192506105bb303386610b80565b6105cc565b6105ca30856107f3565b505b7fd6d03665a2db8e33540039bee4344aa57d9fa0923b2d6932e1d33a762208992b8583856040516105ff93929190611794565b60405180910390a15050505050565b60006012905090565b600080610622610921565b90506106438185856106348589610816565b61063e91906117cb565b610929565b600191505092915050565b610656610df8565b6106608282610e76565b5050565b60008060008373ffffffffffffffffffffffffffffffffffffffff1673ffffffffffffffffffffffffffffffffffffffff168152602001908152602001600020549050919050565b6106b4610df8565b6106be6000610fcd565b565b6000600560009054906101000a900473ffffffffffffffffffffffffffffffffffffffff16905090565b6060600480546106f990611446565b80601f016020809104026020016040519081016040528092919081815260200182805461072590611446565b80156107725780601f1061074757610100808354040283529160200191610772565b820191906000526020600020905b81548152906001019060200180831161075557829003601f168201915b5050505050905090565b600080610787610921565b905060006107958286610816565b9050838110156107da576040517f08c379a00000000000000000000000000000000000000000000000000000000081526004016107d190611893565b60405180910390fd5b6107e78286868403610929565b60019250505092915050565b6000806107fe610921565b905061080b818585610b80565b600191505092915050565b6000600160008473ffffffffffffffffffffffffffffffffffffffff1673ffffffffffffffffffffffffffffffffffffffff16815260200190815260200160002060008373ffffffffffffffffffffffffffffffffffffffff1673ffffffffffffffffffffffffffffffffffffffff16815260200190815260200160002054905092915050565b6108a5610df8565b600073ffffffffffffffffffffffffffffffffffffffff168173ffffffffffffffffffffffffffffffffffffffff161415610915576040517f08c379a000000000000000000000000000000000000000000000000000000000815260040161090c90611925565b60405180910390fd5b61091e81610fcd565b50565b600033905090565b600073ffffffffffffffffffffffffffffffffffffffff168373ffffffffffffffffffffffffffffffffffffffff161415610999576040517f08c379a0000000000000000000000000000000000000000000000000000000008152600401610990906119b7565b60405180910390fd5b600073ffffffffffffffffffffffffffffffffffffffff168273ffffffffffffffffffffffffffffffffffffffff161415610a09576040517f08c379a0000000000000000000000000000000000000000000000000000000008152600401610a0090611a49565b60405180910390fd5b80600160008573ffffffffffffffffffffffffffffffffffffffff1673ffffffffffffffffffffffffffffffffffffffff16815260200190815260200160002060008473ffffffffffffffffffffffffffffffffffffffff1673ffffffffffffffffffffffffffffffffffffffff168152602001908152602001600020819055508173ffffffffffffffffffffffffffffffffffffffff168373ffffffffffffffffffffffffffffffffffffffff167f8c5be1e5ebec7d5bd14f71427d1e84f3dd0314c0f7b2291e5b200ac8c7c3b92583604051610ae79190611276565b60405180910390a3505050565b6000610b008484610816565b90507fffffffffffffffffffffffffffffffffffffffffffffffffffffffffffffffff8114610b7a5781811015610b6c576040517f08c379a0000000000000000000000000000000000000000000000000000000008152600401610b6390611ab5565b60405180910390fd5b610b798484848403610929565b5b50505050565b600073ffffffffffffffffffffffffffffffffffffffff168373ffffffffffffffffffffffffffffffffffffffff161415610bf0576040517f08c379a0000000000000000000000000000000000000000000000000000000008152600401610be790611b47565b60405180910390fd5b600073ffffffffffffffffffffffffffffffffffffffff168273ffffffffffffffffffffffffffffffffffffffff161415610c60576040517f08c379a0000000000000000000000000000000000000000000000000000000008152600401610c5790611bd9565b60405180910390fd5b610c6b838383611093565b60008060008573ffffffffffffffffffffffffffffffffffffffff1673ffffffffffffffffffffffffffffffffffffffff16815260200190815260200160002054905081811015610cf1576040517f08c379a0000000000000000000000000000000000000000000000000000000008152600401610ce890611c6b565b60405180910390fd5b8181036000808673ffffffffffffffffffffffffffffffffffffffff1673ffffffffffffffffffffffffffffffffffffffff16815260200190815260200160002081905550816000808573ffffffffffffffffffffffffffffffffffffffff1673ffffffffffffffffffffffffffffffffffffffff168152602001908152602001600020600082825401925050819055508273ffffffffffffffffffffffffffffffffffffffff168473ffffffffffffffffffffffffffffffffffffffff167fddf252ad1be2c89b69c2b068fc378daa952ba7f163c4a11628f55a4df523b3ef84604051610ddf9190611276565b60405180910390a3610df2848484611098565b50505050565b610e00610921565b73ffffffffffffffffffffffffffffffffffffffff16610e1e6106c0565b73ffffffffffffffffffffffffffffffffffffffff1614610e74576040517f08c379a0000000000000000000000000000000000000000000000000000000008152600401610e6b90611cd7565b60405180910390fd5b565b600073ffffffffffffffffffffffffffffffffffffffff168273ffffffffffffffffffffffffffffffffffffffff161415610ee6576040517f08c379a0000000000000000000000000000000000000000000000000000000008152600401610edd90611d43565b60405180910390fd5b610ef260008383611093565b8060026000828254610f0491906117cb565b92505081905550806000808473ffffffffffffffffffffffffffffffffffffffff1673ffffffffffffffffffffffffffffffffffffffff168152602001908152602001600020600082825401925050819055508173ffffffffffffffffffffffffffffffffffffffff16600073ffffffffffffffffffffffffffffffffffffffff167fddf252ad1be2c89b69c2b068fc378daa952ba7f163c4a11628f55a4df523b3ef83604051610fb59190611276565b60405180910390a3610fc960008383611098565b5050565b6000600560009054906101000a900473ffffffffffffffffffffffffffffffffffffffff16905081600560006101000a81548173ffffffffffffffffffffffffffffffffffffffff021916908373ffffffffffffffffffffffffffffffffffffffff1602179055508173ffffffffffffffffffffffffffffffffffffffff168173ffffffffffffffffffffffffffffffffffffffff167f8be0079c531659141344cd1fd0a4f28419497f9722a3daafe3b4186f6b6457e060405160405180910390a35050565b505050565b505050565b600081519050919050565b600082825260208201905092915050565b60005b838110156110d75780820151818401526020810190506110bc565b838111156110e6576000848401525b50505050565b6000601f19601f8301169050919050565b60006111088261109d565b61111281856110a8565b93506111228185602086016110b9565b61112b816110ec565b840191505092915050565b6000602082019050818103600083015261115081846110fd565b905092915050565b600080fd5b600073ffffffffffffffffffffffffffffffffffffffff82169050919050565b60006111888261115d565b9050919050565b6111988161117d565b81146111a357600080fd5b50565b6000813590506111b58161118f565b92915050565b6000819050919050565b6111ce816111bb565b81146111d957600080fd5b50565b6000813590506111eb816111c5565b92915050565b6000806040838503121561120857611207611158565b5b6000611216858286016111a6565b9250506020611227858286016111dc565b9150509250929050565b60008115159050919050565b61124681611231565b82525050565b6000602082019050611261600083018461123d565b92915050565b611270816111bb565b82525050565b600060208201905061128b6000830184611267565b92915050565b6000806000606084860312156112aa576112a9611158565b5b60006112b8868287016111a6565b93505060206112c9868287016111a6565b92505060406112da868287016111dc565b9150509250925092565b600381106112f157600080fd5b50565b600081359050611303816112e4565b92915050565b600080604083850312156113205761131f611158565b5b600061132e858286016112f4565b925050602061133f858286016111dc565b9150509250929050565b600060ff82169050919050565b61135f81611349565b82525050565b600060208201905061137a6000830184611356565b92915050565b60006020828403121561139657611395611158565b5b60006113a4848285016111a6565b91505092915050565b6113b68161117d565b82525050565b60006020820190506113d160008301846113ad565b92915050565b600080604083850312156113ee576113ed611158565b5b60006113fc858286016111a6565b925050602061140d858286016111a6565b9150509250929050565b7f4e487b7100000000000000000000000000000000000000000000000000000000600052602260045260246000fd5b6000600282049050600182168061145e57607f821691505b6020821081141561147257611471611417565b5b50919050565b7f4e487b7100000000000000000000000000000000000000000000000000000000600052601160045260246000fd5b60006114b2826111bb565b91506114bd836111bb565b9250817fffffffffffffffffffffffffffffffffffffffffffffffffffffffffffffffff04831182151516156114f6576114f5611478565b5b828202905092915050565b7f4e6f7420656e6f75676820706f6f6c206d6f6e65790000000000000000000000600082015250565b60006115376015836110a8565b915061154282611501565b602082019050919050565b600060208201905081810360008301526115668161152a565b9050919050565b7f41746c65617374206120776569206d7573742062652073656e74000000000000600082015250565b60006115a3601a836110a8565b91506115ae8261156d565b602082019050919050565b600060208201905081810360008301526115d281611596565b9050919050565b7f4e6f7420656e6f7567682062616c616e63650000000000000000000000000000600082015250565b600061160f6012836110a8565b915061161a826115d9565b602082019050919050565b6000602082019050818103600083015261163e81611602565b9050919050565b6000819050919050565b6000819050919050565b61166a61166582611645565b61164f565b82525050565b6000819050919050565b61168b611686826111bb565b611670565b82525050565b600061169d8285611659565b6020820191506116ad828461167a565b6020820191508190509392505050565b7f4e487b7100000000000000000000000000000000000000000000000000000000600052601260045260246000fd5b60006116f7826111bb565b9150611702836111bb565b925082611712576117116116bd565b5b828206905092915050565b7f4e487b7100000000000000000000000000000000000000000000000000000000600052602160045260246000fd5b6003811061175d5761175c61171d565b5b50565b600081905061176e8261174c565b919050565b600061177e82611760565b9050919050565b61178e81611773565b82525050565b60006060820190506117a96000830186611785565b6117b66020830185611785565b6117c3604083018461123d565b949350505050565b60006117d6826111bb565b91506117e1836111bb565b9250827fffffffffffffffffffffffffffffffffffffffffffffffffffffffffffffffff0382111561181657611815611478565b5b828201905092915050565b7f45524332303a2064656372656173656420616c6c6f77616e63652062656c6f7760008201527f207a65726f000000000000000000000000000000000000000000000000000000602082015250565b600061187d6025836110a8565b915061188882611821565b604082019050919050565b600060208201905081810360008301526118ac81611870565b9050919050565b7f4f776e61626c653a206e6577206f776e657220697320746865207a65726f206160008201527f6464726573730000000000000000000000000000000000000000000000000000602082015250565b600061190f6026836110a8565b915061191a826118b3565b604082019050919050565b6000602082019050818103600083015261193e81611902565b9050919050565b7f45524332303a20617070726f76652066726f6d20746865207a65726f2061646460008201527f7265737300000000000000000000000000000000000000000000000000000000602082015250565b60006119a16024836110a8565b91506119ac82611945565b604082019050919050565b600060208201905081810360008301526119d081611994565b9050919050565b7f45524332303a20617070726f766520746f20746865207a65726f20616464726560008201527f7373000000000000000000000000000000000000000000000000000000000000602082015250565b6000611a336022836110a8565b9150611a3e826119d7565b604082019050919050565b60006020820190508181036000830152611a6281611a26565b9050919050565b7f45524332303a20696e73756666696369656e7420616c6c6f77616e6365000000600082015250565b6000611a9f601d836110a8565b9150611aaa82611a69565b602082019050919050565b60006020820190508181036000830152611ace81611a92565b9050919050565b7f45524332303a207472616e736665722066726f6d20746865207a65726f20616460008201527f6472657373000000000000000000000000000000000000000000000000000000602082015250565b6000611b316025836110a8565b9150611b3c82611ad5565b604082019050919050565b60006020820190508181036000830152611b6081611b24565b9050919050565b7f45524332303a207472616e7366657220746f20746865207a65726f206164647260008201527f6573730000000000000000000000000000000000000000000000000000000000602082015250565b6000611bc36023836110a8565b9150611bce82611b67565b604082019050919050565b60006020820190508181036000830152611bf281611bb6565b9050919050565b7f45524332303a207472616e7366657220616d6f756e742065786365656473206260008201527f616c616e63650000000000000000000000000000000000000000000000000000602082015250565b6000611c556026836110a8565b9150611c6082611bf9565b604082019050919050565b60006020820190508181036000830152611c8481611c48565b9050919050565b7f4f776e61626c653a2063616c6c6572206973206e6f7420746865206f776e6572600082015250565b6000611cc16020836110a8565b9150611ccc82611c8b565b602082019050919050565b60006020820190508181036000830152611cf081611cb4565b9050919050565b7f45524332303a206d696e7420746f20746865207a65726f206164647265737300600082015250565b6000611d2d601f836110a8565b9150611d3882611cf7565b602082019050919050565b60006020820190508181036000830152611d5c81611d20565b905091905056fea26469706673582212200e9be5c45f67c6ce439294ab26a6862a9e79847fa4850224d5f090fdf82e9d0364736f6c634300080b0033",
  "immutableReferences": {},
  "source": "pragma solidity ^0.8.0;\nimport \"../../node_modules/@openzeppelin/contracts/token/ERC20/ERC20.sol\";\nimport \"../../node_modules/@openzeppelin/contracts/access/Ownable.sol\";\n\ncontract luckySevenERC20 is ERC20(\"LuckySeven\", \"L7\"), Ownable {\n    enum choices {\n        below_seven,\n        seven,\n        above_seven\n    }\n    constructor(){\n       _mint(address(this), 10000);\n    }\n\n    function mint(\n        address player,\n        uint256 amount\n    ) public onlyOwner {\n        _mint(player, amount);\n    }\n\n    event output(choices playerChoice, choices computerChoice, bool result);\n\n    function getLucky(choices userChoice, uint256 bet) public {\n        require(balanceOf(address(this)) >= 2 * bet, \"Not enough pool money\");\n        require(bet > 0, \"Atleast a wei must be sent\");\n        require(balanceOf(msg.sender) >= bet, \"Not enough balance\");\n        bool result;\n        choices computerChoice;\n        uint256 computerNumber = uint256(\n            keccak256(\n                abi.encodePacked(blockhash(block.number), block.timestamp)\n            )\n        ) % 14;\n        computerChoice = computerNumber<7? choices.below_seven:computerNumber<7?choices.seven:choices.above_seven;\n        if (userChoice == computerChoice) {\n            result = true;\n            _transfer(address(this), msg.sender, bet);\n        } else {\n            transfer(address(this), bet);\n        }\n        emit output(userChoice, computerChoice, result);\n    }\n}\n",
  "sourcePath": "/home/mnr/workspace/Ethereum_course/Ethereum_development/4_Lucky_Seven_DAPP/src/contracts/4_Luck_Seven_ERC20.sol",
  "compiler": {
    "name": "solc",
    "version": "0.8.11+commit.d7f03943.Emscripten.clang"
  },
  "schemaVersion": "3.4.4",
  "updatedAt": "2023-01-05T06:34:57.780Z",
  "networkType": "ethereum",
  "devdoc": {
    "kind": "dev",
    "methods": {
      "allowance(address,address)": {
        "details": "See {IERC20-allowance}."
      },
      "approve(address,uint256)": {
        "details": "See {IERC20-approve}. NOTE: If `amount` is the maximum `uint256`, the allowance is not updated on `transferFrom`. This is semantically equivalent to an infinite approval. Requirements: - `spender` cannot be the zero address."
      },
      "balanceOf(address)": {
        "details": "See {IERC20-balanceOf}."
      },
      "decimals()": {
        "details": "Returns the number of decimals used to get its user representation. For example, if `decimals` equals `2`, a balance of `505` tokens should be displayed to a user as `5.05` (`505 / 10 ** 2`). Tokens usually opt for a value of 18, imitating the relationship between Ether and Wei. This is the value {ERC20} uses, unless this function is overridden; NOTE: This information is only used for _display_ purposes: it in no way affects any of the arithmetic of the contract, including {IERC20-balanceOf} and {IERC20-transfer}."
      },
      "decreaseAllowance(address,uint256)": {
        "details": "Atomically decreases the allowance granted to `spender` by the caller. This is an alternative to {approve} that can be used as a mitigation for problems described in {IERC20-approve}. Emits an {Approval} event indicating the updated allowance. Requirements: - `spender` cannot be the zero address. - `spender` must have allowance for the caller of at least `subtractedValue`."
      },
      "increaseAllowance(address,uint256)": {
        "details": "Atomically increases the allowance granted to `spender` by the caller. This is an alternative to {approve} that can be used as a mitigation for problems described in {IERC20-approve}. Emits an {Approval} event indicating the updated allowance. Requirements: - `spender` cannot be the zero address."
      },
      "name()": {
        "details": "Returns the name of the token."
      },
      "owner()": {
        "details": "Returns the address of the current owner."
      },
      "renounceOwnership()": {
        "details": "Leaves the contract without owner. It will not be possible to call `onlyOwner` functions anymore. Can only be called by the current owner. NOTE: Renouncing ownership will leave the contract without an owner, thereby removing any functionality that is only available to the owner."
      },
      "symbol()": {
        "details": "Returns the symbol of the token, usually a shorter version of the name."
      },
      "totalSupply()": {
        "details": "See {IERC20-totalSupply}."
      },
      "transfer(address,uint256)": {
        "details": "See {IERC20-transfer}. Requirements: - `to` cannot be the zero address. - the caller must have a balance of at least `amount`."
      },
      "transferFrom(address,address,uint256)": {
        "details": "See {IERC20-transferFrom}. Emits an {Approval} event indicating the updated allowance. This is not required by the EIP. See the note at the beginning of {ERC20}. NOTE: Does not update the allowance if the current allowance is the maximum `uint256`. Requirements: - `from` and `to` cannot be the zero address. - `from` must have a balance of at least `amount`. - the caller must have allowance for ``from``'s tokens of at least `amount`."
      },
      "transferOwnership(address)": {
        "details": "Transfers ownership of the contract to a new account (`newOwner`). Can only be called by the current owner."
      }
    },
    "version": 1
  },
  "userdoc": {
    "kind": "user",
    "methods": {},
    "version": 1
  }
}