{
  "contractName": "luckyCardsNFT",
  "abi": [
    {
      "anonymous": false,
      "inputs": [
        {
          "indexed": true,
          "internalType": "address",
          "name": "owner",
          "type": "address"
        },
        {
          "indexed": true,
          "internalType": "address",
          "name": "approved",
          "type": "address"
        },
        {
          "indexed": true,
          "internalType": "uint256",
          "name": "tokenId",
          "type": "uint256"
        }
      ],
      "name": "Approval",
      "type": "event"
    },
    {
      "anonymous": false,
      "inputs": [
        {
          "indexed": true,
          "internalType": "address",
          "name": "owner",
          "type": "address"
        },
        {
          "indexed": true,
          "internalType": "address",
          "name": "operator",
          "type": "address"
        },
        {
          "indexed": false,
          "internalType": "bool",
          "name": "approved",
          "type": "bool"
        }
      ],
      "name": "ApprovalForAll",
      "type": "event"
    },
    {
      "anonymous": false,
      "inputs": [
        {
          "indexed": true,
          "internalType": "address",
          "name": "from",
          "type": "address"
        },
        {
          "indexed": true,
          "internalType": "address",
          "name": "to",
          "type": "address"
        },
        {
          "indexed": true,
          "internalType": "uint256",
          "name": "tokenId",
          "type": "uint256"
        }
      ],
      "name": "Transfer",
      "type": "event"
    },
    {
      "inputs": [
        {
          "internalType": "address",
          "name": "to",
          "type": "address"
        },
        {
          "internalType": "uint256",
          "name": "tokenId",
          "type": "uint256"
        }
      ],
      "name": "approve",
      "outputs": [],
      "stateMutability": "nonpayable",
      "type": "function"
    },
    {
      "inputs": [
        {
          "internalType": "address",
          "name": "owner",
          "type": "address"
        }
      ],
      "name": "balanceOf",
      "outputs": [
        {
          "internalType": "uint256",
          "name": "",
          "type": "uint256"
        }
      ],
      "stateMutability": "view",
      "type": "function",
      "constant": true
    },
    {
      "inputs": [
        {
          "internalType": "uint256",
          "name": "",
          "type": "uint256"
        }
      ],
      "name": "cards",
      "outputs": [
        {
          "internalType": "string",
          "name": "",
          "type": "string"
        }
      ],
      "stateMutability": "view",
      "type": "function",
      "constant": true
    },
    {
      "inputs": [
        {
          "internalType": "uint256",
          "name": "tokenId",
          "type": "uint256"
        }
      ],
      "name": "getApproved",
      "outputs": [
        {
          "internalType": "address",
          "name": "",
          "type": "address"
        }
      ],
      "stateMutability": "view",
      "type": "function",
      "constant": true
    },
    {
      "inputs": [
        {
          "internalType": "address",
          "name": "owner",
          "type": "address"
        },
        {
          "internalType": "address",
          "name": "operator",
          "type": "address"
        }
      ],
      "name": "isApprovedForAll",
      "outputs": [
        {
          "internalType": "bool",
          "name": "",
          "type": "bool"
        }
      ],
      "stateMutability": "view",
      "type": "function",
      "constant": true
    },
    {
      "inputs": [],
      "name": "name",
      "outputs": [
        {
          "internalType": "string",
          "name": "",
          "type": "string"
        }
      ],
      "stateMutability": "view",
      "type": "function",
      "constant": true
    },
    {
      "inputs": [
        {
          "internalType": "uint256",
          "name": "tokenId",
          "type": "uint256"
        }
      ],
      "name": "ownerOf",
      "outputs": [
        {
          "internalType": "address",
          "name": "",
          "type": "address"
        }
      ],
      "stateMutability": "view",
      "type": "function",
      "constant": true
    },
    {
      "inputs": [
        {
          "internalType": "address",
          "name": "from",
          "type": "address"
        },
        {
          "internalType": "address",
          "name": "to",
          "type": "address"
        },
        {
          "internalType": "uint256",
          "name": "tokenId",
          "type": "uint256"
        }
      ],
      "name": "safeTransferFrom",
      "outputs": [],
      "stateMutability": "nonpayable",
      "type": "function"
    },
    {
      "inputs": [
        {
          "internalType": "address",
          "name": "from",
          "type": "address"
        },
        {
          "internalType": "address",
          "name": "to",
          "type": "address"
        },
        {
          "internalType": "uint256",
          "name": "tokenId",
          "type": "uint256"
        },
        {
          "internalType": "bytes",
          "name": "data",
          "type": "bytes"
        }
      ],
      "name": "safeTransferFrom",
      "outputs": [],
      "stateMutability": "nonpayable",
      "type": "function"
    },
    {
      "inputs": [
        {
          "internalType": "address",
          "name": "operator",
          "type": "address"
        },
        {
          "internalType": "bool",
          "name": "approved",
          "type": "bool"
        }
      ],
      "name": "setApprovalForAll",
      "outputs": [],
      "stateMutability": "nonpayable",
      "type": "function"
    },
    {
      "inputs": [
        {
          "internalType": "bytes4",
          "name": "interfaceId",
          "type": "bytes4"
        }
      ],
      "name": "supportsInterface",
      "outputs": [
        {
          "internalType": "bool",
          "name": "",
          "type": "bool"
        }
      ],
      "stateMutability": "view",
      "type": "function",
      "constant": true
    },
    {
      "inputs": [],
      "name": "symbol",
      "outputs": [
        {
          "internalType": "string",
          "name": "",
          "type": "string"
        }
      ],
      "stateMutability": "view",
      "type": "function",
      "constant": true
    },
    {
      "inputs": [
        {
          "internalType": "uint256",
          "name": "tokenId",
          "type": "uint256"
        }
      ],
      "name": "tokenURI",
      "outputs": [
        {
          "internalType": "string",
          "name": "",
          "type": "string"
        }
      ],
      "stateMutability": "view",
      "type": "function",
      "constant": true
    },
    {
      "inputs": [],
      "name": "totalNFTs",
      "outputs": [
        {
          "internalType": "uint256",
          "name": "",
          "type": "uint256"
        }
      ],
      "stateMutability": "view",
      "type": "function",
      "constant": true
    },
    {
      "inputs": [
        {
          "internalType": "address",
          "name": "from",
          "type": "address"
        },
        {
          "internalType": "address",
          "name": "to",
          "type": "address"
        },
        {
          "internalType": "uint256",
          "name": "tokenId",
          "type": "uint256"
        }
      ],
      "name": "transferFrom",
      "outputs": [],
      "stateMutability": "nonpayable",
      "type": "function"
    },
    {
      "inputs": [
        {
          "internalType": "string",
          "name": "card",
          "type": "string"
        }
      ],
      "name": "mint",
      "outputs": [],
      "stateMutability": "nonpayable",
      "type": "function"
    }
  ],
  "bytecode": "0x608060405260006008553480156200001657600080fd5b506040518060400160405280600981526020017f4c75636b794361726400000000000000000000000000000000000000000000008152506040518060400160405280600281526020017f454e00000000000000000000000000000000000000000000000000000000000081525081600090805190602001906200009b929190620000bd565b508060019080519060200190620000b4929190620000bd565b505050620001d2565b828054620000cb906200019c565b90600052602060002090601f016020900481019282620000ef57600085556200013b565b82601f106200010a57805160ff19168380011785556200013b565b828001600101855582156200013b579182015b828111156200013a5782518255916020019190600101906200011d565b5b5090506200014a91906200014e565b5090565b5b80821115620001695760008160009055506001016200014f565b5090565b7f4e487b7100000000000000000000000000000000000000000000000000000000600052602260045260246000fd5b60006002820490506001821680620001b557607f821691505b60208210811415620001cc57620001cb6200016d565b5b50919050565b612a7e80620001e26000396000f3fe608060405234801561001057600080fd5b50600436106101005760003560e01c806370a0823111610097578063b88d4fde11610066578063b88d4fde146102bf578063c87b56dd146102db578063d85d3d271461030b578063e985e9c51461032757610100565b806370a08231146102255780638dc107681461025557806395d89b4114610285578063a22cb465146102a357610100565b80630d0e96da116100d35780630d0e96da1461019f57806323b872dd146101bd57806342842e0e146101d95780636352211e146101f557610100565b806301ffc9a71461010557806306fdde0314610135578063081812fc14610153578063095ea7b314610183575b600080fd5b61011f600480360381019061011a9190611b01565b610357565b60405161012c9190611b49565b60405180910390f35b61013d610439565b60405161014a9190611bfd565b60405180910390f35b61016d60048036038101906101689190611c55565b6104cb565b60405161017a9190611cc3565b60405180910390f35b61019d60048036038101906101989190611d0a565b610511565b005b6101a7610629565b6040516101b49190611d59565b60405180910390f35b6101d760048036038101906101d29190611d74565b61062f565b005b6101f360048036038101906101ee9190611d74565b61068f565b005b61020f600480360381019061020a9190611c55565b6106af565b60405161021c9190611cc3565b60405180910390f35b61023f600480360381019061023a9190611dc7565b610736565b60405161024c9190611d59565b60405180910390f35b61026f600480360381019061026a9190611c55565b6107ee565b60405161027c9190611bfd565b60405180910390f35b61028d61089a565b60405161029a9190611bfd565b60405180910390f35b6102bd60048036038101906102b89190611e20565b61092c565b005b6102d960048036038101906102d49190611f95565b610942565b005b6102f560048036038101906102f09190611c55565b6109a4565b6040516103029190611bfd565b60405180910390f35b610325600480360381019061032091906120b9565b610a0c565b005b610341600480360381019061033c9190612102565b610adb565b60405161034e9190611b49565b60405180910390f35b60007f80ac58cd000000000000000000000000000000000000000000000000000000007bffffffffffffffffffffffffffffffffffffffffffffffffffffffff1916827bffffffffffffffffffffffffffffffffffffffffffffffffffffffff1916148061042257507f5b5e139f000000000000000000000000000000000000000000000000000000007bffffffffffffffffffffffffffffffffffffffffffffffffffffffff1916827bffffffffffffffffffffffffffffffffffffffffffffffffffffffff1916145b80610432575061043182610b6f565b5b9050919050565b60606000805461044890612171565b80601f016020809104026020016040519081016040528092919081815260200182805461047490612171565b80156104c15780601f10610496576101008083540402835291602001916104c1565b820191906000526020600020905b8154815290600101906020018083116104a457829003601f168201915b5050505050905090565b60006104d682610bd9565b6004600083815260200190815260200160002060009054906101000a900473ffffffffffffffffffffffffffffffffffffffff169050919050565b600061051c826106af565b90508073ffffffffffffffffffffffffffffffffffffffff168373ffffffffffffffffffffffffffffffffffffffff16141561058d576040517f08c379a000000000000000000000000000000000000000000000000000000000815260040161058490612215565b60405180910390fd5b8073ffffffffffffffffffffffffffffffffffffffff166105ac610c24565b73ffffffffffffffffffffffffffffffffffffffff1614806105db57506105da816105d5610c24565b610adb565b5b61061a576040517f08c379a0000000000000000000000000000000000000000000000000000000008152600401610611906122a7565b60405180910390fd5b6106248383610c2c565b505050565b60085481565b61064061063a610c24565b82610ce5565b61067f576040517f08c379a000000000000000000000000000000000000000000000000000000000815260040161067690612339565b60405180910390fd5b61068a838383610d7a565b505050565b6106aa83838360405180602001604052806000815250610942565b505050565b6000806106bb83611074565b9050600073ffffffffffffffffffffffffffffffffffffffff168173ffffffffffffffffffffffffffffffffffffffff16141561072d576040517f08c379a0000000000000000000000000000000000000000000000000000000008152600401610724906123a5565b60405180910390fd5b80915050919050565b60008073ffffffffffffffffffffffffffffffffffffffff168273ffffffffffffffffffffffffffffffffffffffff1614156107a7576040517f08c379a000000000000000000000000000000000000000000000000000000000815260040161079e90612437565b60405180910390fd5b600360008373ffffffffffffffffffffffffffffffffffffffff1673ffffffffffffffffffffffffffffffffffffffff168152602001908152602001600020549050919050565b600681815481106107fe57600080fd5b90600052602060002001600091509050805461081990612171565b80601f016020809104026020016040519081016040528092919081815260200182805461084590612171565b80156108925780601f1061086757610100808354040283529160200191610892565b820191906000526020600020905b81548152906001019060200180831161087557829003601f168201915b505050505081565b6060600180546108a990612171565b80601f01602080910402602001604051908101604052809291908181526020018280546108d590612171565b80156109225780601f106108f757610100808354040283529160200191610922565b820191906000526020600020905b81548152906001019060200180831161090557829003601f168201915b5050505050905090565b61093e610937610c24565b83836110b1565b5050565b61095361094d610c24565b83610ce5565b610992576040517f08c379a000000000000000000000000000000000000000000000000000000000815260040161098990612339565b60405180910390fd5b61099e8484848461121e565b50505050565b60606109af82610bd9565b60006109b961127a565b905060008151116109d95760405180602001604052806000815250610a04565b806109e384611291565b6040516020016109f4929190612493565b6040516020818303038152906040525b915050919050565b600781604051610a1c91906124b7565b908152602001604051809103902060009054906101000a900460ff1615610a78576040517f08c379a0000000000000000000000000000000000000000000000000000000008152600401610a6f9061251a565b60405180910390fd5b600681908060018154018082558091505060019003906000526020600020016000909190919091509080519060200190610ab39291906119f2565b50610ac033600854611369565b60086000815480929190610ad390612569565b919050555050565b6000600560008473ffffffffffffffffffffffffffffffffffffffff1673ffffffffffffffffffffffffffffffffffffffff16815260200190815260200160002060008373ffffffffffffffffffffffffffffffffffffffff1673ffffffffffffffffffffffffffffffffffffffff16815260200190815260200160002060009054906101000a900460ff16905092915050565b60007f01ffc9a7000000000000000000000000000000000000000000000000000000007bffffffffffffffffffffffffffffffffffffffffffffffffffffffff1916827bffffffffffffffffffffffffffffffffffffffffffffffffffffffff1916149050919050565b610be281611587565b610c21576040517f08c379a0000000000000000000000000000000000000000000000000000000008152600401610c18906123a5565b60405180910390fd5b50565b600033905090565b816004600083815260200190815260200160002060006101000a81548173ffffffffffffffffffffffffffffffffffffffff021916908373ffffffffffffffffffffffffffffffffffffffff160217905550808273ffffffffffffffffffffffffffffffffffffffff16610c9f836106af565b73ffffffffffffffffffffffffffffffffffffffff167f8c5be1e5ebec7d5bd14f71427d1e84f3dd0314c0f7b2291e5b200ac8c7c3b92560405160405180910390a45050565b600080610cf1836106af565b90508073ffffffffffffffffffffffffffffffffffffffff168473ffffffffffffffffffffffffffffffffffffffff161480610d335750610d328185610adb565b5b80610d7157508373ffffffffffffffffffffffffffffffffffffffff16610d59846104cb565b73ffffffffffffffffffffffffffffffffffffffff16145b91505092915050565b8273ffffffffffffffffffffffffffffffffffffffff16610d9a826106af565b73ffffffffffffffffffffffffffffffffffffffff1614610df0576040517f08c379a0000000000000000000000000000000000000000000000000000000008152600401610de790612624565b60405180910390fd5b600073ffffffffffffffffffffffffffffffffffffffff168273ffffffffffffffffffffffffffffffffffffffff161415610e60576040517f08c379a0000000000000000000000000000000000000000000000000000000008152600401610e57906126b6565b60405180910390fd5b610e6d83838360016115c8565b8273ffffffffffffffffffffffffffffffffffffffff16610e8d826106af565b73ffffffffffffffffffffffffffffffffffffffff1614610ee3576040517f08c379a0000000000000000000000000000000000000000000000000000000008152600401610eda90612624565b60405180910390fd5b6004600082815260200190815260200160002060006101000a81549073ffffffffffffffffffffffffffffffffffffffff02191690556001600360008573ffffffffffffffffffffffffffffffffffffffff1673ffffffffffffffffffffffffffffffffffffffff168152602001908152602001600020600082825403925050819055506001600360008473ffffffffffffffffffffffffffffffffffffffff1673ffffffffffffffffffffffffffffffffffffffff16815260200190815260200160002060008282540192505081905550816002600083815260200190815260200160002060006101000a81548173ffffffffffffffffffffffffffffffffffffffff021916908373ffffffffffffffffffffffffffffffffffffffff160217905550808273ffffffffffffffffffffffffffffffffffffffff168473ffffffffffffffffffffffffffffffffffffffff167fddf252ad1be2c89b69c2b068fc378daa952ba7f163c4a11628f55a4df523b3ef60405160405180910390a461106f83838360016116ee565b505050565b60006002600083815260200190815260200160002060009054906101000a900473ffffffffffffffffffffffffffffffffffffffff169050919050565b8173ffffffffffffffffffffffffffffffffffffffff168373ffffffffffffffffffffffffffffffffffffffff161415611120576040517f08c379a000000000000000000000000000000000000000000000000000000000815260040161111790612722565b60405180910390fd5b80600560008573ffffffffffffffffffffffffffffffffffffffff1673ffffffffffffffffffffffffffffffffffffffff16815260200190815260200160002060008473ffffffffffffffffffffffffffffffffffffffff1673ffffffffffffffffffffffffffffffffffffffff16815260200190815260200160002060006101000a81548160ff0219169083151502179055508173ffffffffffffffffffffffffffffffffffffffff168373ffffffffffffffffffffffffffffffffffffffff167f17307eab39ab6107e8899845ad3d59bd9653f200f220920489ca2b5937696c31836040516112119190611b49565b60405180910390a3505050565b611229848484610d7a565b611235848484846116f4565b611274576040517f08c379a000000000000000000000000000000000000000000000000000000000815260040161126b906127b4565b60405180910390fd5b50505050565b606060405180602001604052806000815250905090565b6060600060016112a08461187c565b01905060008167ffffffffffffffff8111156112bf576112be611e6a565b5b6040519080825280601f01601f1916602001820160405280156112f15781602001600182028036833780820191505090505b509050600082602001820190505b60011561135e578080600190039150507f3031323334353637383961626364656600000000000000000000000000000000600a86061a8153600a8581611348576113476127d4565b5b04945060008514156113595761135e565b6112ff565b819350505050919050565b600073ffffffffffffffffffffffffffffffffffffffff168273ffffffffffffffffffffffffffffffffffffffff1614156113d9576040517f08c379a00000000000000000000000000000000000000000000000000000000081526004016113d09061284f565b60405180910390fd5b6113e281611587565b15611422576040517f08c379a0000000000000000000000000000000000000000000000000000000008152600401611419906128bb565b60405180910390fd5b6114306000838360016115c8565b61143981611587565b15611479576040517f08c379a0000000000000000000000000000000000000000000000000000000008152600401611470906128bb565b60405180910390fd5b6001600360008473ffffffffffffffffffffffffffffffffffffffff1673ffffffffffffffffffffffffffffffffffffffff16815260200190815260200160002060008282540192505081905550816002600083815260200190815260200160002060006101000a81548173ffffffffffffffffffffffffffffffffffffffff021916908373ffffffffffffffffffffffffffffffffffffffff160217905550808273ffffffffffffffffffffffffffffffffffffffff16600073ffffffffffffffffffffffffffffffffffffffff167fddf252ad1be2c89b69c2b068fc378daa952ba7f163c4a11628f55a4df523b3ef60405160405180910390a46115836000838360016116ee565b5050565b60008073ffffffffffffffffffffffffffffffffffffffff166115a983611074565b73ffffffffffffffffffffffffffffffffffffffff1614159050919050565b60018111156116e857600073ffffffffffffffffffffffffffffffffffffffff168473ffffffffffffffffffffffffffffffffffffffff161461165c5780600360008673ffffffffffffffffffffffffffffffffffffffff1673ffffffffffffffffffffffffffffffffffffffff168152602001908152602001600020600082825461165491906128db565b925050819055505b600073ffffffffffffffffffffffffffffffffffffffff168373ffffffffffffffffffffffffffffffffffffffff16146116e75780600360008573ffffffffffffffffffffffffffffffffffffffff1673ffffffffffffffffffffffffffffffffffffffff16815260200190815260200160002060008282546116df919061290f565b925050819055505b5b50505050565b50505050565b60006117158473ffffffffffffffffffffffffffffffffffffffff166119cf565b1561186f578373ffffffffffffffffffffffffffffffffffffffff1663150b7a0261173e610c24565b8786866040518563ffffffff1660e01b815260040161176094939291906129ba565b6020604051808303816000875af192505050801561179c57506040513d601f19601f820116820180604052508101906117999190612a1b565b60015b61181f573d80600081146117cc576040519150601f19603f3d011682016040523d82523d6000602084013e6117d1565b606091505b50600081511415611817576040517f08c379a000000000000000000000000000000000000000000000000000000000815260040161180e906127b4565b60405180910390fd5b805181602001fd5b63150b7a0260e01b7bffffffffffffffffffffffffffffffffffffffffffffffffffffffff1916817bffffffffffffffffffffffffffffffffffffffffffffffffffffffff191614915050611874565b600190505b949350505050565b600080600090507a184f03e93ff9f4daa797ed6e38ed64bf6a1f01000000000000000083106118da577a184f03e93ff9f4daa797ed6e38ed64bf6a1f01000000000000000083816118d0576118cf6127d4565b5b0492506040810190505b6d04ee2d6d415b85acef81000000008310611917576d04ee2d6d415b85acef8100000000838161190d5761190c6127d4565b5b0492506020810190505b662386f26fc10000831061194657662386f26fc10000838161193c5761193b6127d4565b5b0492506010810190505b6305f5e100831061196f576305f5e1008381611965576119646127d4565b5b0492506008810190505b612710831061199457612710838161198a576119896127d4565b5b0492506004810190505b606483106119b757606483816119ad576119ac6127d4565b5b0492506002810190505b600a83106119c6576001810190505b80915050919050565b6000808273ffffffffffffffffffffffffffffffffffffffff163b119050919050565b8280546119fe90612171565b90600052602060002090601f016020900481019282611a205760008555611a67565b82601f10611a3957805160ff1916838001178555611a67565b82800160010185558215611a67579182015b82811115611a66578251825591602001919060010190611a4b565b5b509050611a749190611a78565b5090565b5b80821115611a91576000816000905550600101611a79565b5090565b6000604051905090565b600080fd5b600080fd5b60007fffffffff0000000000000000000000000000000000000000000000000000000082169050919050565b611ade81611aa9565b8114611ae957600080fd5b50565b600081359050611afb81611ad5565b92915050565b600060208284031215611b1757611b16611a9f565b5b6000611b2584828501611aec565b91505092915050565b60008115159050919050565b611b4381611b2e565b82525050565b6000602082019050611b5e6000830184611b3a565b92915050565b600081519050919050565b600082825260208201905092915050565b60005b83811015611b9e578082015181840152602081019050611b83565b83811115611bad576000848401525b50505050565b6000601f19601f8301169050919050565b6000611bcf82611b64565b611bd98185611b6f565b9350611be9818560208601611b80565b611bf281611bb3565b840191505092915050565b60006020820190508181036000830152611c178184611bc4565b905092915050565b6000819050919050565b611c3281611c1f565b8114611c3d57600080fd5b50565b600081359050611c4f81611c29565b92915050565b600060208284031215611c6b57611c6a611a9f565b5b6000611c7984828501611c40565b91505092915050565b600073ffffffffffffffffffffffffffffffffffffffff82169050919050565b6000611cad82611c82565b9050919050565b611cbd81611ca2565b82525050565b6000602082019050611cd86000830184611cb4565b92915050565b611ce781611ca2565b8114611cf257600080fd5b50565b600081359050611d0481611cde565b92915050565b60008060408385031215611d2157611d20611a9f565b5b6000611d2f85828601611cf5565b9250506020611d4085828601611c40565b9150509250929050565b611d5381611c1f565b82525050565b6000602082019050611d6e6000830184611d4a565b92915050565b600080600060608486031215611d8d57611d8c611a9f565b5b6000611d9b86828701611cf5565b9350506020611dac86828701611cf5565b9250506040611dbd86828701611c40565b9150509250925092565b600060208284031215611ddd57611ddc611a9f565b5b6000611deb84828501611cf5565b91505092915050565b611dfd81611b2e565b8114611e0857600080fd5b50565b600081359050611e1a81611df4565b92915050565b60008060408385031215611e3757611e36611a9f565b5b6000611e4585828601611cf5565b9250506020611e5685828601611e0b565b9150509250929050565b600080fd5b600080fd5b7f4e487b7100000000000000000000000000000000000000000000000000000000600052604160045260246000fd5b611ea282611bb3565b810181811067ffffffffffffffff82111715611ec157611ec0611e6a565b5b80604052505050565b6000611ed4611a95565b9050611ee08282611e99565b919050565b600067ffffffffffffffff821115611f0057611eff611e6a565b5b611f0982611bb3565b9050602081019050919050565b82818337600083830152505050565b6000611f38611f3384611ee5565b611eca565b905082815260208101848484011115611f5457611f53611e65565b5b611f5f848285611f16565b509392505050565b600082601f830112611f7c57611f7b611e60565b5b8135611f8c848260208601611f25565b91505092915050565b60008060008060808587031215611faf57611fae611a9f565b5b6000611fbd87828801611cf5565b9450506020611fce87828801611cf5565b9350506040611fdf87828801611c40565b925050606085013567ffffffffffffffff81111561200057611fff611aa4565b5b61200c87828801611f67565b91505092959194509250565b600067ffffffffffffffff82111561203357612032611e6a565b5b61203c82611bb3565b9050602081019050919050565b600061205c61205784612018565b611eca565b90508281526020810184848401111561207857612077611e65565b5b612083848285611f16565b509392505050565b600082601f8301126120a05761209f611e60565b5b81356120b0848260208601612049565b91505092915050565b6000602082840312156120cf576120ce611a9f565b5b600082013567ffffffffffffffff8111156120ed576120ec611aa4565b5b6120f98482850161208b565b91505092915050565b6000806040838503121561211957612118611a9f565b5b600061212785828601611cf5565b925050602061213885828601611cf5565b9150509250929050565b7f4e487b7100000000000000000000000000000000000000000000000000000000600052602260045260246000fd5b6000600282049050600182168061218957607f821691505b6020821081141561219d5761219c612142565b5b50919050565b7f4552433732313a20617070726f76616c20746f2063757272656e74206f776e6560008201527f7200000000000000000000000000000000000000000000000000000000000000602082015250565b60006121ff602183611b6f565b915061220a826121a3565b604082019050919050565b6000602082019050818103600083015261222e816121f2565b9050919050565b7f4552433732313a20617070726f76652063616c6c6572206973206e6f7420746f60008201527f6b656e206f776e6572206f7220617070726f76656420666f7220616c6c000000602082015250565b6000612291603d83611b6f565b915061229c82612235565b604082019050919050565b600060208201905081810360008301526122c081612284565b9050919050565b7f4552433732313a2063616c6c6572206973206e6f7420746f6b656e206f776e6560008201527f72206f7220617070726f76656400000000000000000000000000000000000000602082015250565b6000612323602d83611b6f565b915061232e826122c7565b604082019050919050565b6000602082019050818103600083015261235281612316565b9050919050565b7f4552433732313a20696e76616c696420746f6b656e2049440000000000000000600082015250565b600061238f601883611b6f565b915061239a82612359565b602082019050919050565b600060208201905081810360008301526123be81612382565b9050919050565b7f4552433732313a2061646472657373207a65726f206973206e6f74206120766160008201527f6c6964206f776e65720000000000000000000000000000000000000000000000602082015250565b6000612421602983611b6f565b915061242c826123c5565b604082019050919050565b6000602082019050818103600083015261245081612414565b9050919050565b600081905092915050565b600061246d82611b64565b6124778185612457565b9350612487818560208601611b80565b80840191505092915050565b600061249f8285612462565b91506124ab8284612462565b91508190509392505050565b60006124c38284612462565b915081905092915050565b7f6361726449642065786973747300000000000000000000000000000000000000600082015250565b6000612504600d83611b6f565b915061250f826124ce565b602082019050919050565b60006020820190508181036000830152612533816124f7565b9050919050565b7f4e487b7100000000000000000000000000000000000000000000000000000000600052601160045260246000fd5b600061257482611c1f565b91507fffffffffffffffffffffffffffffffffffffffffffffffffffffffffffffffff8214156125a7576125a661253a565b5b600182019050919050565b7f4552433732313a207472616e736665722066726f6d20696e636f72726563742060008201527f6f776e6572000000000000000000000000000000000000000000000000000000602082015250565b600061260e602583611b6f565b9150612619826125b2565b604082019050919050565b6000602082019050818103600083015261263d81612601565b9050919050565b7f4552433732313a207472616e7366657220746f20746865207a65726f2061646460008201527f7265737300000000000000000000000000000000000000000000000000000000602082015250565b60006126a0602483611b6f565b91506126ab82612644565b604082019050919050565b600060208201905081810360008301526126cf81612693565b9050919050565b7f4552433732313a20617070726f766520746f2063616c6c657200000000000000600082015250565b600061270c601983611b6f565b9150612717826126d6565b602082019050919050565b6000602082019050818103600083015261273b816126ff565b9050919050565b7f4552433732313a207472616e7366657220746f206e6f6e20455243373231526560008201527f63656976657220696d706c656d656e7465720000000000000000000000000000602082015250565b600061279e603283611b6f565b91506127a982612742565b604082019050919050565b600060208201905081810360008301526127cd81612791565b9050919050565b7f4e487b7100000000000000000000000000000000000000000000000000000000600052601260045260246000fd5b7f4552433732313a206d696e7420746f20746865207a65726f2061646472657373600082015250565b6000612839602083611b6f565b915061284482612803565b602082019050919050565b600060208201905081810360008301526128688161282c565b9050919050565b7f4552433732313a20746f6b656e20616c7265616479206d696e74656400000000600082015250565b60006128a5601c83611b6f565b91506128b08261286f565b602082019050919050565b600060208201905081810360008301526128d481612898565b9050919050565b60006128e682611c1f565b91506128f183611c1f565b9250828210156129045761290361253a565b5b828203905092915050565b600061291a82611c1f565b915061292583611c1f565b9250827fffffffffffffffffffffffffffffffffffffffffffffffffffffffffffffffff0382111561295a5761295961253a565b5b828201905092915050565b600081519050919050565b600082825260208201905092915050565b600061298c82612965565b6129968185612970565b93506129a6818560208601611b80565b6129af81611bb3565b840191505092915050565b60006080820190506129cf6000830187611cb4565b6129dc6020830186611cb4565b6129e96040830185611d4a565b81810360608301526129fb8184612981565b905095945050505050565b600081519050612a1581611ad5565b92915050565b600060208284031215612a3157612a30611a9f565b5b6000612a3f84828501612a06565b9150509291505056fea264697066735822122092c2cb3fc9817fad82cbd69c428ce171db5ced1864bc520bb939889c35071bec64736f6c634300080b0033",
  "immutableReferences": {},
  "source": "pragma solidity ^0.8.0;\n\nimport \"../../node_modules/@openzeppelin/contracts/token/ERC721/ERC721.sol\";\ncontract luckyCardsNFT is ERC721(\"LuckyCard\",\"EN\") {\n    string[] public cards;\n    mapping(string=>bool) _cardExists;\n    uint public totalNFTs = 0;\n    function mint(string memory card) public {\n        require(!_cardExists[card],\"cardId exists\");\n        cards.push(card);\n        _mint(msg.sender, totalNFTs);\n        totalNFTs++;\n    }\n}",
  "sourcePath": "/home/mnr/workspace/Ethereum_course/Ethereum_development/5_Lucky_Cards_NFT/src/contracts/5_lucky_cards_NFT.sol",
  "compiler": {
    "name": "solc",
    "version": "0.8.11+commit.d7f03943.Emscripten.clang"
  },
  "schemaVersion": "3.4.4",
  "updatedAt": "2023-01-05T12:35:52.238Z",
  "networkType": "ethereum",
  "devdoc": {
    "kind": "dev",
    "methods": {
      "approve(address,uint256)": {
        "details": "See {IERC721-approve}."
      },
      "balanceOf(address)": {
        "details": "See {IERC721-balanceOf}."
      },
      "getApproved(uint256)": {
        "details": "See {IERC721-getApproved}."
      },
      "isApprovedForAll(address,address)": {
        "details": "See {IERC721-isApprovedForAll}."
      },
      "name()": {
        "details": "See {IERC721Metadata-name}."
      },
      "ownerOf(uint256)": {
        "details": "See {IERC721-ownerOf}."
      },
      "safeTransferFrom(address,address,uint256)": {
        "details": "See {IERC721-safeTransferFrom}."
      },
      "safeTransferFrom(address,address,uint256,bytes)": {
        "details": "See {IERC721-safeTransferFrom}."
      },
      "setApprovalForAll(address,bool)": {
        "details": "See {IERC721-setApprovalForAll}."
      },
      "supportsInterface(bytes4)": {
        "details": "See {IERC165-supportsInterface}."
      },
      "symbol()": {
        "details": "See {IERC721Metadata-symbol}."
      },
      "tokenURI(uint256)": {
        "details": "See {IERC721Metadata-tokenURI}."
      },
      "transferFrom(address,address,uint256)": {
        "details": "See {IERC721-transferFrom}."
      }
    },
    "version": 1
  },
  "userdoc": {
    "kind": "user",
    "methods": {},
    "version": 1
  }
}